:020000040800F2
:1000000000020020C1000008910F000851190008EB
:100010005119000851190008511900085119000818
:100020005119000851190008511900085119000808
:1000300051190008511900085119000851190008F8
:1000400051190008511900085119000851190008E8
:1000500051190008511900085119000851190008D8
:1000600051190008511900085119000851190008C8
:1000700051190008511900085119000851190008B8
:10008000910500085119000851190008511900087C
:100090005119000851190008511900085119000898
:1000A000511900085119000851190008D10A000817
:1000B0005119000851190008511900085119000878
:1000C00072B6214880F30988022080F31488BFF3B8
:1000D0006F8F01F025FC00F053FD1C481C491D4AA0
:1000E000914202DA08600431FAE71B49164A91424C
:1000F00002DA08600431FAE71849194A194B9A42A2
:1001000004DA0868106004310432F8E70020164968
:10011000164A914202DA08600431FAE701F008FC5D
:10012000134C144DAC4203DA216888470434F9E7D4
:1001300000F0EEFD104C114DAC4203DA2168884707
:100140000434F9E70E49084700030020555555557A
:10015000000000200002002000020020F02700081C
:10016000000300200003002000030020CC06002034
:10017000C0000008C0000008C0000008C00000085F
:10018000411900080000000000000000000000000D
:10019000F0B544464D4656465F46F0B46B46CB60DC
:1001A000C3689D46F0BCA046A946B246BB46F0BD1A
:1001B00062B6281CA047002002F0FAF902F018F9F4
:1001C000014A024B1360FEE704ED00E000000080EE
:1001D000002934D00123002210B488422CD30124FA
:1001E0002407A14204D2814202D209011B01F8E78F
:1001F000E400A14204D2814202D249005B00F8E748
:10020000884201D3401A1A434C08A04202D3001B73
:100210005C0822438C08A04202D3001B9C082243A6
:10022000CC08A04202D3001BDC082243002803D0E4
:100230001B0901D00909E3E7101C10BC7047002816
:1002400001D00020C04307B4024802A14018029028
:1002500003BDC0461D0000000029F0D003B5FFF724
:10026000B9FF0EBC4243891A1847C046000000007F
:100270007047C046000000000000000000000000C1
:1002800000B583B001900A1C6B4603331A70019BC2
:100290005B69002B05D1019B0433181C042101F07C
:1002A0000FFA019B1A1C0C326B4603331B78101C8F
:1002B000191C00F0E5FF031C002B05DA019B043339
:1002C000181C802101F0FCF903B000BDC046C046F7
:1002D00030B583B0019000911D4B019A92081C49E2
:1002E00001988008C03080004158019C03202040C4
:1002F000C000FF24251C8540281CC04308400099ED
:100300008C01019D03212940C900251C8D40291C19
:100310000143C0329200D1500D4B019A520901980D
:100320001F2101400120041C8C40211C60329200DE
:10033000D150074B019A520901981F210140012019
:10034000051C8D40291C9200D15003B030BDC04621
:1003500000E100E0C046C046C046C046C046C046B8
:10036000154B154A1268802149000A431A60134B45
:100370001A6AC0239B001A4080239B009A4206D031
:100380000E4B802252021A620C4B00221A620B4B57
:100390001A6A80231B0213400DD1084B074A126AC8
:1003A000802189000A431A62044B044A126A8021A0
:1003B00009020A431A6270470070004000100240B0
:1003C00008B5124B9B6A114B012252429A620F4BA5
:1003D00000229A620D4B1B690C4B012252421A619A
:1003E0000A4B00221A61094B084AD26808490A439D
:1003F000DA60064B0022DA60044B044AD26980219D
:1004000049050A43DA61FFF7ABFF08BD001002405F
:10041000FFFFBFFFC046C046C046C046C046C046FC
:10042000324B324A126801210A431A602F4B1A6874
:1004300002231340FAD02D4B2C4A526803218A43E1
:100440005A602A4B294A52685A60284B5A680C2332
:100450001340FAD1254B254A1168F9220A401A6047
:10046000224B00225A60214B204A526B01210A4341
:100470005A631E4B5A6B02231340FAD01B4B1B4A84
:10048000526A01210A435A62184B5A6A02231340E6
:10049000FAD0164BA02292035A60144B0022DA6263
:1004A000124B00221A63114B104A12688021490432
:1004B0000A431A600D4B1A6880239B041340F9D03D
:1004C0000B4B11221A60094B084A526802210A4359
:1004D0005A60064B5A680C231340082BF9D1034B82
:1004E000024A926901210A439A6170470010024052
:1004F00000200240C046C046C046C046C046C04676
:1005000072B67047C046C046C046C046C046C046E8
:1005100062B67047C046C046C046C046C046C046E8
:1005200008B5FFF7EDFF08BDC046C046C046C0464F
:1005300008B5FFF7EDFF08BDC046C046C046C0463F
:1005400008B5FFF7EDFF08BDC046C046C046C0462F
:1005500008B5FFF7EDFF08BDC046C046C046C0461F
:1005600008B5FFF7EDFF08BDC046C046C046C0460F
:1005700008B5FFF7EDFF08BDC046C046C046C046FF
:1005800008B501F0B5FB08BDC046C046C046C04630
:1005900000B583B073460193094B1A6902231340D7
:1005A00008D0074B00221A61FFF7DAFFFFF7E8FFD8
:1005B000FFF7DEFF019B181C00F002FD03B000BD39
:1005C00000040040C046C046C046C046C046C046C3
:1005D00008B5144B134AD26902210A43DA61124B5F
:1005E000114A926802210A439A60104B104A9A629B
:1005F0000E4B104ADA620D4B00229A610B4B00221F
:100600005A630A4B0022DA60084B00225A60074BFB
:1006100001225A61054B01221A6010200221FFF7C6
:1006200057FE08BD00100240005801400004004081
:10063000BF120000FFFF0000C046C046C046C046D3
:1006400082B001900091009B5A68019B5A60009B08
:100650009A68019B9A60009BDA68019BDA60009BB4
:100660001A69019B5A61009B5A69019B1A62009B9F
:100670009A69019B5A62009B1A68019B1A6002B03A
:100680007047C046C046C046C046C046C046C04689
:1006900000B583B00190124B114A52699C21C903E5
:1006A0000A435A61019B9022D205101C191CFFF7C6
:1006B000C7FF019B1C330B4A101C191CFFF7C0FF1E
:1006C000019B3833084A101C191CFFF7B9FF019B26
:1006D0005433064A101C191CFFF7B2FF03B000BDCB
:1006E00000100240000400480008004800140048C0
:1006F0008EB0039002910192019A032313400D934F
:10070000019A042313409B080C93019A1823134069
:10071000DB080B93019A602313405B090A93019A4B
:10072000F023DB001340DB09089300230993029AAE
:100730000123134058D0099A072313409B00089ABD
:10074000111C99400B1C0793099A072313409B0027
:100750000F22111C99400B1C0693099B072B09D8EB
:10076000039B1B6A069AD2431A40079B1A43039BBA
:100770001A6208E0039B5B6A069AD2431A40079B01
:100780001A43039B5A62099B0122111C99400B1CBE
:100790000593039B5B68059AD2431A400C9B1A434E
:1007A000039B5A60099B5B000322111C99400B1CA0
:1007B0000493039B9B68049AD2431A400B9B1A43F1
:1007C000039B9A60039BDB68049AD2431A400A9BFE
:1007D0001A43039BDA60039B1B68049AD2431A40B6
:1007E0000D9B1A43039B1A60029B5B080293029BBA
:1007F000002B0FD00C9B5B000C930B9B9B000B936F
:100800000A9B9B000A930D9B9B000D93099B013350
:1008100009938CE70EB07047C046C046C046C0463C
:1008200072B67047C046C046C046C046C046C046C5
:1008300062B67047C046C046C046C046C046C046C5
:1008400008B5FFF7EDFF08BDC046C046C046C0462C
:1008500008B5FFF7EDFF08BDC046C046C046C0461C
:1008600008B5FFF7EDFF08BDC046C046C046C0460C
:1008700008B5FFF7EDFF08BDC046C046C046C046FC
:1008800008B5FFF7EDFF08BDC046C046C046C046EC
:1008900008B5FFF7EDFF08BDC046C046C046C046DC
:1008A00082B001900091019B1A68009B1A43019B42
:1008B0001A6002B07047C046C046C046C046C04637
:1008C00000B585B001900091019B5B6F0393019B84
:1008D0009A6F009B1B68101C191CFFF779FC031C06
:1008E0001A1C039BDA60009B9B6840221A43039BFF
:1008F0005A60009BDB6801221A43039B9A60009BAD
:100900005B682E22FF321A43039B1A60039B01226D
:1009100052421A6205B000BDC046C046C046C0463D
:1009200000B585B00190009100230393009A08233D
:10093000134003D0039B802213430393009A0123A7
:10094000134003D0039B202213430393009A0223F6
:10095000134003D0039B402213430393009A0423C4
:10096000134004D0039B8022520013430393FFF7EC
:1009700087FF019B1A1D039B101C191CFFF790FF9A
:10098000FFF786FF05B000BDC046C046C046C04662
:1009900000B587B00190019B5B6F0593059B1B68B9
:1009A0000493059BDB690393059B039A1A62039AE0
:1009B0000F23134005D0019A039B101C191CFFF74D
:1009C000AFFF039A80235B0013400BD0FFF758FF63
:1009D000019B1A1D80239B00101C191CFFF760FF50
:1009E000FFF756FF039A202313400CD0FFF748FF70
:1009F000059B9B8C9BB2DBB2019A101C191CFFF764
:100A00003FFCFFF745FF049A8023134023D0039A4D
:100A1000802313401FD0FFF733FF019B3033181C96
:100A200000F07EFD031C0293029B002B0DDA019B5C
:100A30000433181C0821FFF733FF049BC0229343A3
:100A400040221A43059B1A6003E0029B9AB2059B61
:100A50001A85FFF71DFF039A4023134023D0FFF7A9
:100A60000FFF019B5A6C019B9B6C9A4205D1019B25
:100A70009B6B002B01D0012300E000231A1C0123F3
:100A80001340DBB2002B05D0019B0433181C10214E
:100A9000FFF706FF049B4022191C91430A1C059B8B
:100AA0001A60FFF7F5FE07B000BDC046C046C0465D
:100AB00082B00190034B034A126880210A431A60F6
:100AC00002B0704700380140C046C046C046C0462C
:100AD00000B583B073460193044B181CFFF758FF11
:100AE000019B181C00F06CFA03B000BD50040020FC
:100AF00008B5094A094B101C00211A1C00F0C8FE59
:100B0000054B074A5A67044B064A9A671B20032184
:100B1000FFF7DEFB08BDC04650040020B10A000804
:100B200000380140006CDC02C046C046C046C046EA
:100B300000B583B001900091009B002B01D10C4BBC
:100B40000093019B1B7A012B0AD1019A094B9A420F
:100B500006D1094B084A92698021C9010A439A616A
:100B6000019A009B101C191CFFF7AAFE03B000BDE0
:100B7000502700085004002000100240C046C04624
:100B800008B5FFF74DFC08BDC046C046C046C0468C
:100B90007047C046C046C046C046C046C046C04674
:100BA00084B001900A1C6B4603331A700023039330
:100BB0006B460B3300221A701CE0019A012313408C
:100BC0000ED06B4603331B785A1E6B460B331B78D3
:100BD000D31A0122111C99400B1C039A134303934F
:100BE000019B5B0801936B460B336A460B3212780C
:100BF00001321A706A460B326B46033312781B7847
:100C00009A42DAD3039B181C04B07047C046C04612
:100C100000B587B0019000916B46163300221A8010
:100C20000023049327E0049B019AD3181B78181C17
:100C30000821FFF7B5FF031CD9B26B4616331B889A
:100C40001B0A9BB2DAB26B460F334A401A706B46EE
:100C50000F331A78104B5200D35A9AB26B461633A0
:100C60001B881B029BB253409AB26B4616331A8004
:100C7000049B01330493049A009B9A42D3DB6B4696
:100C800016331B88181C1021FFF78AFF031C9BB228
:100C9000181C07B000BDC046CC040020C046C046AA
:100CA00010B584B001900A1C6B4603331A706C4671
:100CB0000E34019B181C0421FFF7AAFF031C23809C
:100CC000019B01221A70019B0133F0221A70019BD3
:100CD000023310221A70019B03336A4603321278E2
:100CE0001A70019B04336A460E321288120A92B2BD
:100CF000D2B21A70019B05336A460E321288D2B204
:100D00001A70019B063304221A7004B010BDC0464D
:100D100000B587B000F08CF900F0AAFF6B461633DF
:100D200000221A809023DA053B4B101C191C40222C
:100D3000FFF7DEFC9023DB05181C04218222FFF75D
:100D4000D7FC9023DB05181C08218222FFF7D0FC7A
:100D5000324B181C002100F0CBFD6B4615330022EE
:100D60001A709023DB051B6999B26B4616332A4A29
:100D70000A401A806B4616331B88DAB203231340ED
:100D8000D9B26B4615336A46153212780A431A7087
:100D90006B4616331A88F02313409BB29B089BB214
:100DA000D9B26B4615336A46153212780A431A7067
:100DB0006B4616331A88C023DB0013409BB2DB0856
:100DC0009BB2D9B26B4615336A46153212780A4384
:100DD0001A706B4615331B78002BBED003AA6B46E6
:100DE00015331B78101C191CFFF75AFF0C4903AA76
:100DF0000C4B081C111C072200F0D2FB00230293AD
:100E000005E0019B01330193029B01330293029A97
:100E1000054B9A42F5DDA0E7F306000050040020E0
:100E200080040020FFFF00009F860100C046C046EE
:100E300072B67047C046C046C046C046C046C046AF
:100E400062B67047C046C046C046C046C046C046AF
:100E500008B5FFF7EDFF08BDC046C046C046C04616
:100E600008B5FFF7EDFF08BDC046C046C046C04606
:100E7000064B0733072293431A1C054B1A60054B98
:100E8000072293431A1C044B1A607047D0060020B7
:100E900028040020001000202C040020C046C0467A
:100EA00000B585B00190FFF7D3FF019B181C00F03F
:100EB0000FF8031C0393FFF7D3FF039B181C05B027
:100EC00000BDC046C046C046C046C046C046C0463B
:100ED00084B00190019B07330722934301930C4B8D
:100EE0001B681A1C0B4B1B68D31A1A1C019B9A42D5
:100EF00001D2002309E0074B1B680393054B1A68D6
:100F0000019BD218034B1A60039B181C04B0704756
:100F10002C04002028040020C046C046C046C0461D
:100F200008B5074B074A1A60054B00229A60044B2C
:100F30000022DA60044B181C01F0D2FB08BDC04649
:100F400030040020A10E000840040020C046C04626
:100F500072B67047C046C046C046C046C046C0468E
:100F600062B67047C046C046C046C046C046C0468E
:100F700008B5FFF7EDFF08BDC046C046C046C046F5
:100F800008B5FFF7EDFF08BDC046C046C046C046E5
:100F900010B582B0EFF309831C1C231C0193019B45
:100FA00020330193019B0093009B83F30988FFF793
:100FB000E7FF02B010BDC046C046C046C046C046AE
:100FC00010B584B00190019B1A1C0F321ED0FFF7A0
:100FD000CFFFEFF309831C1C231C0393039B203BCF
:100FE0000393039B0293029B83F30988039B802254
:100FF0005204DA6101F0ACF9031C002B03D0039B0F
:10100000034A9A6102E0039B024A9A6104B010BD50
:10101000BD010008C0010008C046C046C046C04629
:101020007047C046C046C046C046C046C046C046DF
:1010300008B5FFF7F5FFFFF7C3F9054B181CFFF7DD
:1010400027FB00F01DFCFFF7A3FD00F039F808BDF9
:1010500060270008C046C046C046C046C046C046DD
:1010600082B0021C6B4606331A80064B6A46063273
:1010700012885A63034B00221A61024B0222DA6083
:1010800002B0704700040040C046C046C046C0469B
:10109000014B0022DA60704700040040C046C046A1
:1010A00082B0021C6B4606331A80034B6A46063236
:1010B00012885A6302B0704700040040C046C04620
:1010C00008B5FFF785FA08BDC046C046C046C04611
:1010D00000B583B0021C6B4606331A806B4606339C
:1010E0001B88181CFFF7BCFF03B000BDC046C046FC
:1010F00008B5FFF7CDFF08BDC046C046C046C04694
:1011000000B583B0021C6B4606331A806B4606336B
:101110001B88181CFFF7C4FF03B000BDC046C046C3
:1011200072B67047C046C046C046C046C046C046BC
:1011300062B67047C046C046C046C046C046C046BC
:1011400082B00190019B019A1A60019B019A5A603A
:1011500002B07047C046C046C046C046C046C04602
:1011600008B5FFF7DDFF08BDC046C046C046C04613
:1011700008B5FFF7DDFF08BDC046C046C046C04603
:1011800000B583B00190019B181CFFF7D9FF03B095
:1011900000BDC046C046C046C046C046C046C04668
:1011A00008B5FFF7DDFF08BDC046C046C046C046D3
:1011B00008B5FFF7DDFF08BDC046C046C046C046C3
:1011C00000B583B00190019B181CFFF7D9FF03B055
:1011D00000BDC046C046C046C046C046C046C04628
:1011E00000B583B001900A1C6B4602331A80019A45
:1011F0006B4602331B88101C191C01F021FA031CDA
:10120000181C03B000BDC046C046C046C046C0461C
:1012100000B583B001900091019A009B101C191C2D
:1012200001F036FA03B000BDC046C046C046C04615
:1012300000B585B00390029101920093039B181CA6
:10124000FFF7BEFF039B00229A60039B029ADA60BD
:10125000039B029A9A61039B029A5A61029A019B2C
:10126000D218039B1A61039B009ADA61039B069ACA
:101270001A6205B000BDC046C046C046C046C04662
:1012800000B583B001900A1C6B4603331A70019BB2
:101290005A69019B9B699A4205D1019B9B68002B6F
:1012A00001D0012300E000231A1C01231340DBB20C
:1012B000002B02D004235B421DE0019B9B685A1C5B
:1012C000019B9A60019B5B69591C019A51616A46B6
:1012D000033212781A70019B5A69019B1B699A426A
:1012E00003D3019BDA68019B5A61019B181C002102
:1012F000FFF78EFF0023181C03B000BDC046C04698
:1013000000B585B001900A1C6B4602331A80FFF7C6
:1013100047FF019BDB69002B16D0019BDB69019A1B
:10132000101C984710E0019A6B4602331B88101C72
:10133000191CFFF755FF031C0393039B002B03DAD3
:10134000FFF736FF039B20E0019B9B68002BEAD050
:10135000019B9B685A1E019B9A60019B9B69591CCB
:10136000019A91616A460B321B781370019B9A694E
:10137000019B1B699A4203D3019BDA68019B9A6126
:10138000FFF716FF6B460B331B78181C05B000BD2A
:1013900000B587B00390029101921A1C6B4602338C
:1013A0001A80039BDB69049300230593FFF7F8FE83
:1013B000049B002B13D0039A049B101C98470EE04B
:1013C000039A6B4602331B88101C191CFFF708FF99
:1013D000031C002B03D0FFF7EBFE059B2CE0039BC7
:1013E0009B68002BECD0039B9B685A1E039B9A6062
:1013F000029B5A1C0292039A9269501C03998861BD
:1014000012781A70039B9A69039B1B699A4203D353
:10141000039BDA68039B9A61FFF7CAFE059B0133C1
:101420000593019B013B0193019B002B01D1059B7F
:1014300002E0FFF7B5FEBBE7181C07B000BDC046D1
:1014400000B585B00390029101920093039B181C94
:10145000FFF7B6FE039B019A9A60039B029ADA603B
:10146000039B029A9A61039B029A5A61029A019B1A
:10147000D218039B1A61039B009ADA61039B069AB8
:101480001A6205B000BDC046C046C046C046C04650
:1014900000B585B001906B46033319706B461A8016
:1014A000FFF77EFE0FE0019A6B461B88101C191C8B
:1014B000FFF796FE031C0393039B002B03DAFFF751
:1014C00077FE039B27E0019B9B68002BEBD0019BE1
:1014D0009B685A1E019B9A60019B5B69591C019A8B
:1014E00051616A46033212781A70019B5A69019B56
:1014F0001B699A4203D3019BDA68019B5A61019BE5
:10150000DB69002B04D0019BDB69019A101C984712
:10151000FFF74EFE0023181C05B000BDC046C046B4
:1015200000B585B00190019B5A69019B9B699A4265
:1015300005D1019B9B68002B01D0012300E0002313
:101540001A1C01231340DBB2002B02D003235B42A1
:101550001FE0019B9B685A1C019B9A60019B9B6941
:10156000591C019A91616A460F321B781370019BD6
:101570009A69019B1B699A4203D3019BDA68019B1C
:101580009A61019B181C0021FFF742FE6B460F3346
:101590001B78181C05B000BDC046C046C046C046FA
:1015A00000B587B00390029101921A1C6B4602337A
:1015B0001A80039BDB69049300230593FFF7F0FD7A
:1015C0000EE0039A6B4602331B88101C191CFFF7B0
:1015D00007FE031C002B03D0FFF7EAFD059B33E059
:1015E000039B9B68002BECD0039B9B685A1E039BBC
:1015F0009A60039B5B69591C039A5161029A511CC2
:10160000029112781A70039B5A69039B1B699A42D4
:1016100003D3039BDA68039B5A61049B002B03D01E
:10162000039A049B101C9847FFF7C2FD059B0133EA
:101630000593019B013B0193019B002B01D1059B6D
:1016400002E0FFF7ADFDCBE7181C07B000BDC046B8
:1016500072B67047C046C046C046C046C046C04687
:1016600062B67047C046C046C046C046C046C04687
:1016700008B5FFF7EDFF08BDC046C046C046C046EE
:1016800008B5FFF7EDFF08BDC046C046C046C046DE
:1016900008B5FFF7EDFF08BDC046C046C046C046CE
:1016A00008B5FFF7EDFF08BDC046C046C046C046BE
:1016B00082B00190019B00221A6002B07047C046C0
:1016C00082B001900091019B1A68009B1A43019B14
:1016D0001A6002B07047C046C046C046C046C04609
:1016E00000B585B0039002910192039B181C303025
:1016F0000299019A034BFFF753FF031C181C05B016
:1017000000BDC046FFFF0000C046C046C046C04600
:1017100000B585B0039002910192039B181C0C3018
:101720000299019A034BFFF733FE031C181C05B006
:1017300000BDC046FFFF0000C046C046C046C046D0
:1017400000B583B001900A1C6B4603331A70019BED
:10175000191C30316B4603331A78054B081C111CD9
:101760001A1CFFF795FE031C181C03B000BDC046F1
:10177000FFFF0000C046C046C046C046C046C04647
:1017800000B583B00190019B1A1C0C32044B101C55
:10179000191CFFF7B5FD031C181C03B000BDC046A3
:1017A000FFFF0000C046C046C046C046C046C04617
:1017B00000B583B001906B46033319706B461A80F5
:1017C000019B191C30316B4603331A786B461B881A
:1017D000081C111C1A1CFFF75BFE031C181C03B02D
:1017E00000BDC046C046C046C046C046C046C04612
:1017F00000B583B001900A1C6B4602331A80019B2E
:101800001A1C0C326B4602331B88101C191CFFF784
:1018100077FD031C181C03B000BDC046C046C0467F
:1018200000B585B00390029101921A1C6B460233F9
:101830001A80039B181C30300299019A6B460233C0
:101840001B88FFF7ADFE031C181C05B000BDC04689
:1018500000B585B00390029101921A1C6B460233C9
:101860001A80039B181C0C300299019A6B460233B4
:101870001B88FFF78DFD031C181C05B000BDC0467A
:1018800008B5FFF735F908BDC046C046C046C0469A
:1018900000B587B0059004910392059B134A1A6026
:1018A000059B0433181CFFF703FF059B01221A72E6
:1018B000059B191C0C31059B1A1C5432049B05987E
:1018C0000090081C111C1022FFF7B2FC059B191C8C
:1018D0003031059B1A1C6432039B05980090081C4C
:1018E000111C1022FFF7ACFD07B000BD3027000827
:1018F00000B583B001900091FFF7CAFE019A009BEA
:10190000101C191CFFF714F9019B02221A72FFF731
:10191000C7FE03B000BDC046C046C046C046C04674
:101920007047C046C046C046C046C046C046C046D6
:101930007047C046C046C046C046C046C046C046C6
:10194000FEE7C046C046C046C046C046C046C04688
:10195000FEE7C046C046C046C046C046C046C04678
:1019600030B583B0021C00916B4607331A706B468A
:1019700007331B787F2B36D933496B4607331B78E7
:101980001A1C0F231340083B98082F4A6B46073355
:101990001B781C1C0F232340083B9B0806339B002D
:1019A000D3185B686A4607321278141C032222405F
:1019B000D200FF24251C95402A1CD2431A40009BCC
:1019C0009C01FF231C406B4607331B781D1C03231F
:1019D0002B40DB00251C9D402B1C1A43831D9B00C4
:1019E000CB185A602DE0194B6A460732127852B272
:1019F0009208164968460730007840B28008C03027
:101A000080004158684607300078041C03202040BD
:101A1000C000FF24251C8540281CC04308400099B5
:101A20008C01FF210C406946073109780D1C032108
:101A30002940C900251C8D40291C0143C032920059
:101A4000D15003B030BDC04600ED00E000E100E041
:101A500008B502235B42181C0021FFF781FF08BD77
:101A600072B67047C046C046C046C046C046C04673
:101A700062B67047C046C046C046C046C046C04673
:101A800008B5FFF7EDFF08BDC046C046C046C046DA
:101A900008B5FFF7EDFF08BDC046C046C046C046CA
:101AA00062B67047C046C046C046C046C046C04643
:101AB0007047C046C046C046C046C046C046C04645
:101AC000024B5B6A9BB2181C7047C0460004004082
:101AD00008B5FFF70DFB08BDC046C046C046C0466E
:101AE00000B583B0021C6B4606331A806B46063382
:101AF0001B88181CFFF704FB03B000BDC046C0469E
:101B000008B5FFF7DDFF031C181C08BDC046C04622
:101B100008B5FFF7C5FF08BDC046C046C046C04671
:101B200008B5FFF7ADFF08BDC046C046C046C04679
:101B300008B5FFF7ADFF08BDC046C046C046C04669
:101B400008B5FFF7DDFF031C181C08BDC046C046E2
:101B500010B584B0334BDB6903936C460A34FFF74E
:101B6000EFFF031C23802EE02E4BDA8C039B1B8996
:101B7000D3189AB22B4BDA84039B1B682A4A5A600B
:101B8000039B1A68274BDA61039BDB680193039B75
:101B90000022DA60234BDA69234B9A4201D1FFF726
:101BA00097FFFFF7C5FF039B1A69019B101C98471D
:101BB000FFF7B6FF1B4BDB6903936C460A34FFF754
:101BC000BFFF031C2380039B1A89164BDB8C6946DD
:101BD0000A310988CB1A9BB29A42C5D9114BDA69EE
:101BE000114B9A421CD00F4BDA8C039B1B89D318E4
:101BF00099B202AB6A460A3212888A1A1A8002AB7C
:101C00001B88042B02D802AB05221A806A460A32CE
:101C100002AB12881B88D3189BB2181CFFF760FF19
:101C200004B010BD000300201C030020C046C046C5
:101C300082B00190024B9B69019A9A6102B0704791
:101C400000030020C046C046C046C046C046C0464D
:101C500082B001900091019B009A9A6102B0704796
:101C600000B583B00190FFF723FFFCE7C046C046F4
:101C700000B585B0FFF7ECFE00F012FA00F080F836
:101C8000FFF7F6F8FFF74CF9124B181C402100F053
:101C900017FC021C104B9A610F4B9B6901221A77AB
:101CA000FFF736FF0D4B181CFFF7C2FF0C4A0D4B18
:101CB00000210091101CC821012200F059FC031CD6
:101CC0000393039A084B101C191CFFF7C1FF05B0C2
:101CD00000BDC0462C030020000300201027000890
:101CE00060030020611C000800270008C046C046B1
:101CF00008B5FFF72DFF08BDC046C046C046C04628
:101D0000024B5B6A9BB2181C7047C046000400403F
:101D100000B583B0021C6B4606331A806B4606334F
:101D20001B88181CFFF7D4F903B000BDC046C0469D
:101D300008B5FFF7DDF908BDC046C046C046C0463D
:101D400000B583B0021C6B4606331A806B4606331F
:101D50001B88181CFFF7D4F903B000BDC046C0466D
:101D600008B5FFF7CDFF031C181C08BDC046C046D0
:101D700008B5FFF7F5FF031C181C08BDC046C04698
:101D8000064B074ADA61054B054A1A62034B0122EA
:101D900052429A84014B0022DA84704700030020EB
:101DA0001C030020C046C046C046C046C046C046D0
:101DB00010B586B00390019200936B460A330A1C5B
:101DC0001A80039B009A1A61039B019ADA6004ACA3
:101DD000FFF7CEFF031C23806B460A331B88042BBE
:101DE00003D86B460A3305221A803F4BDA693F4B12
:101DF0009A421FD13C4B04AA1288DA843A4B039AC8
:101E0000DA61394B039A1A62039B384A1A60039BC2
:101E1000364A5A60039B6A460A3212881A81324B4C
:101E2000DA8C6B460A331B88D3189BB2181CFFF759
:101E30006FFF56E004AA6B460A3312881B88D3183A
:101E400099B2294BDA8C6B4612338A1A1A80264BC8
:101E5000DB691B896A46123212889A4209D2224BE8
:101E6000DA8C6B4612331B88D3189BB2181CFFF711
:101E700067FF1D4BDB6905930BE0059B1A896B46D9
:101E800012336946123109888A1A1A80059B1B6829
:101E90000593059B1B896A46123212889A42ECD838
:101EA000039B059A1A60039B1B685A68039B5A6040
:101EB000039B5B68039A1A60059B039A5A60039B15
:101EC0006A46123212881A81059B1A896B461233B0
:101ED0001B88D31A9AB2059B1A81034B01225242E6
:101EE0009A8406B010BDC046000300201C030020E9
:101EF00000B585B00190384BDA69019B9A421CD03D
:101F0000019B5B68019A12681A60019B1B68019A29
:101F100052685A60019B0022DA60019B1A682F4BBD
:101F20009A4257D0019B1A68019B1B681989019B33
:101F30001B89CB189BB213814CE0019B1A68264B7E
:101F4000DA61254BDB69254A5A60019B0022DA6081
:101F5000214BDA69214B9A4202D1FFF7E9FE39E0C1
:101F60001D4BDA691C4BDB691989019B1B89CB1856
:101F70009BB21381FFF7FCFE031C191C164BDA8C75
:101F800003AB8A1A1A80144BDB691B8903AA1288D7
:101F90009A421FD2104BDB6919896B460E3303AA94
:101FA00012888A1A1A806B460E331B88042B03D8BA
:101FB0006B460E3305221A80074BDA8C03AB1B8865
:101FC000D3189AB26B460E331B88D3189BB2181CD9
:101FD000FFF7B6FE05B000BD000300201C03002083
:101FE00072B67047C046C046C046C046C046C046EE
:101FF00062B67047C046C046C046C046C046C046EE
:1020000008B5FFF7EDFF08BDC046C046C046C04654
:1020100008B5FFF7EDFF08BDC046C046C046C04644
:1020200082B00190019B019A1A60019B019A5A604B
:1020300002B07047C046C046C046C046C046C04613
:1020400008B5FFF7DDFF08BDC046C046C046C04624
:1020500008B5FFF7DDFF08BDC046C046C046C04614
:1020600082B00190019BDB685A1E9341DBB2181CC1
:1020700002B07047C046C046C046C046C046C046D3
:1020800082B00190019B9B685A1C019B9A6002B030
:102090007047C046C046C046C046C046C046C0465F
:1020A00008B5074B181CFFF7BBFF054B00229A60D1
:1020B000034B034A1A61024B014A5A6108BDC046EC
:1020C00000030020C046C046C046C046C046C046C9
:1020D00082B001900091019B009A1A60009B5A689F
:1020E000019B5A60019B5B68019A1A60009B019AF0
:1020F0005A6002B07047C046C046C046C046C0469F
:1021000084B00190019B1B680393039B1A68019B99
:102110001A60019B1B68019A5A60039B181C04B04B
:102120007047C046C046C046C046C046C046C046CE
:1021300082B00190019B5B68019A12681A60019B52
:102140001B68019A52685A60019B181C02B07047C4
:1021500084B00190019B1B680393039B1A68019B49
:102160001A60039B181C04B07047C046C046C046A6
:1021700084B00190019B00221A770E4B0393039BBE
:102180001B680393039B9A68019B9B689A42F6D253
:10219000019B039A1A60039B5A68019B5A60019B3A
:1021A0005B68019A1A60039B019A5A60019B181C94
:1021B00004B0704700030020C046C046C046C04679
:1021C00000B585B0021C6B4607331A700D4B9B6936
:1021D0000393039B6A46073212781A77094B181C3F
:1021E000FFF78EFF021C074B9A61064B9B69012289
:1021F0001A77044B9A69039B101C191CFDF7C8FF42
:1022000005B000BD00030020C046C046C046C04621
:1022100000B585B00190019B0393FFF711FF039B6D
:102220001B7F072B15D89A00104BD3181B689F46AD
:10223000FFF70EFF17E0039B1B6A00221A6008E0FD
:10224000039B1B6A181CFFF71BFF039B181CFFF75F
:102250006FFF039B012252421A62039B181CFFF777
:1022600087FFFFF7F5FE05B000BDC046D027000888
:1022700000B589B00A1C6B460733011C197001AB0D
:102280001A8001AB1A88144B9A4219D0134B9B69E0
:1022900003A801AA1188124AFFF78AFD6B4607338B
:1022A0001B78181CFFF78CFF03AB181CFFF7D8FE38
:1022B000031C002B0AD003AB181CFFF719FE05E026
:1022C0006B4607331B78181CFFF77AFF034B9B699B
:1022D0001B6A181C09B000BDFFFF000000030020AE
:1022E00011220008C046C046C046C046C046C0468F
:1022F00000B585B001900091019B009A1A62019B84
:102300009A680F4B9B699B689A4204D8019B181CE2
:10231000FFF72EFF12E00A4B9B69181CFFF728FFFE
:10232000031C0393064B019A9A61019B01221A77C1
:10233000019A039B101C191CFDF72AFF05B000BD74
:1023400000030020C046C046C046C046C046C04646
:1023500082B0084B1B689B680193064B9B699B6886
:102360000093019B009A9A429B415B42DBB2181C8E
:1023700002B0704700030020C046C046C046C046B9
:1023800000B583B0194B9B690093184B181CFFF7DD
:10239000B7FE021C154B9A61144B9B6901221A77F8
:1023A000009B00221A77114B0193019B1B6801933C
:1023B000019B9A68009B9B689A42F6D8009B019A01
:1023C0001A60019B5A68009B5A60009B5B68009AE8
:1023D0001A60019B009A5A60044B9A69009B101C7A
:1023E000191CFDF7D5FE03B000BDC0460003002058
:1023F00008B5FFF7C5FF08BDC046C046C046C04689
:1024000072B67047C046C046C046C046C046C046C9
:1024100062B67047C046C046C046C046C046C046C9
:1024200082B00190019B019A1A6002B07047C046C9
:1024300082B00190019B1A68019BD31A5A1E9341E6
:10244000DBB2181C02B07047C046C046C046C0464A
:1024500082B00190019B1A68019BD31A5A1E9341C6
:10246000DBB2181C02B07047C046C046C046C0462A
:1024700008B5FFF7C5FF08BDC046C046C046C04608
:1024800008B5FFF7C5FF08BDC046C046C046C046F8
:1024900000B585B001900091019B181CFFF730FE3C
:1024A000031C0393039B009A1A62039B181CFFF7FB
:1024B0005FFE05B000BDC046C046C046C046C0462F
:1024C00000B583B001900091019B009A9A60019B36
:1024D00002221A77019B00225A77019B009ADA6246
:1024E000019B00229A62019B00229A61019B0B4A88
:1024F0001A610A4B5A69019B5A61019B5B69019AF7
:102500001A61064B019A5A61019B2433181CFFF78C
:1025100087FF019B181C03B000BDC04600030020CC
:1025200000B587B00390029101920093039B05933D
:10253000029B243B039AD218059BDA60059BDB685B
:10254000009A1A61059BDB68089A5A61059BDB6853
:10255000054A1A62059A019B101C191CFFF7B0FF6F
:10256000031C181C07B000BDB1010008C046C046DE
:1025700010B588B00590049103920293FFF778FF9D
:1025800005980499039A029B0A9C0094FFF7C8FFE0
:10259000031C0793079B181C0021FFF7A9FEFFF7F8
:1025A0006FFF079B181C08B010BDC046C046C04650
:1025B00000B583B00190FFF75BFF019B181C00F092
:1025C00007F803B000BDC046C046C046C046C0467E
:1025D00000B585B00190164B9B690393039B019A4C
:1025E0001A6208E0039B2433181CFFF7B1FD031C9B
:1025F000181CFFF7BDFD039B2433181CFFF718FFC1
:10260000031C002BEED1039B5B7F1A1C032313409A
:1026100009D1039B5B69039A12691A61039B1B69C9
:10262000039A52695A610F20FFF7CAFD05B000BD39
:1026300000030020C046C046C046C046C046C04653
:1026400000B583B001900A1C6B4602331A806B46BA
:1026500002331B88002B02D101235B420EE0094BA1
:102660009A69019B101C191CFFF732FD6B4602335F
:102670001B880420191CFFF7FBFD031C181C03B06A
:1026800000BDC04600030020C046C046C046C0464C
:1026900000B583B001900091019B181CFFF7D8FE94
:1026A000031C002B05D0019A009B101C191CFFF77E
:1026B000EFFE03B000BDC046C046C046C046C0469F
:1026C00082B00190019B019A1A60019B019A5A60A5
:1026D00002B07047C046C046C046C046C046C0466D
:1026E00000B583B00190019B181CFFF7E9FF019B27
:1026F00000229A6003B000BDC046C046C046C04636
:1027000069646C650000000000000000000000002B
:102710006D61696E00164018040230080C10141820
:10272000001C1D0000000000000000000000000070
:10273000E11600081117000841170008811700086A
:10274000B1170008F11700082118000851180008F7
:10275000B004000000000000004000000000000085
:10276000A40000280000000057FFFFFF0155556539
:10277000FFFF00000011000000000000000000004A
:1027800000000000FFFFFFFF55555555FFFF0000FB
:102790000000000000000000000000000000000039
:1027A000FFFFFFFF55555551FFFF000000000000DF
:1027B0000000000000000000000000000000000019
:1027C00050555555FFFF00000000000000000000BC
:1027D0003022000852220008522200083622000847
:1027E0004A22000840220008522200084A2200081B
:04000005080000C12E
:00000001FF
