:020000040800F2
:1000000000040020C10100002104000021040000C0
:10001000210400002104000021040000210400004C
:10002000210400002104000021040000E11A000066
:10003000210400002104000021040000210400002C
:10004000210400002104000021040000210400001C
:10005000210400002104000021040000210400000C
:1000600021040000210400002104000021040000FC
:1000700021040000210400002104000021040000EC
:1000800021040000210400002104000021040000DC
:1000900021040000210400002104000021040000CC
:1000A00021040000210400002104000021040000BC
:1000B000412C000021040000210400002104000064
:1000C000210400002104000021040000210400009C
:1000D000210400002104000021040000313D000043
:1000E000210400002104000021040000210400007C
:1000F000210400002104000021040000210400006C
:10010000210400002104000021040000210400005B
:10011000210400002104000021040000210400004B
:10012000210400002104000021040000210400003B
:10013000210400002104000021040000210400002B
:10014000210400002104000021040000B13400005B
:10015000210400002104000021040000210400000B
:1001600021040000210400002104000021040000FB
:1001700021040000210400002104000021040000EB
:1001800021040000210400002104000021040000DB
:1001900021040000210400002104000021040000CB
:1001A00021040000210400002104000021040000BB
:1001B00021040000210400002104000021040000AB
:1001C00072B6214880F30988022080F31488BFF3B7
:1001D0006F8F00F00DF903F0FBFD1C481C491D4A10
:1001E00091423CBF41F8040BFAE71B49164A914281
:1001F0003CBF41F8040BFAE71849194A194B9A42D7
:100200003EBF51F8040B42F8040BF8E700201649F2
:10021000164A91423CBF41F8040BFAE700F0F0F8AF
:10022000134C144DAC4203DA54F8041B8847F9E729
:1002300003F0DEFD104C114DAC4203DA54F8041B00
:100240008847F9E700F0E4B80008002055555555F7
:10025000000000200004002000040020F040000006
:100260000008002000080020000800201C0E0020CC
:10027000C0010000C0010000C0010000C00100007A
:100280002DE9F04FC1F80CD0D0F80CD0BDE8F08FBC
:10029000002383F311882846A047002000F040FF88
:1002A00000F0DEFD00DFFEE70000000000000000BF
:1002B000844641EA000313F003036DD1403A41D371
:1002C00051F8043B40F8043B51F8043B40F8043B30
:1002D00051F8043B40F8043B51F8043B40F8043B20
:1002E00051F8043B40F8043B51F8043B40F8043B10
:1002F00051F8043B40F8043B51F8043B40F8043B00
:1003000051F8043B40F8043B51F8043B40F8043BEF
:1003100051F8043B40F8043B51F8043B40F8043BDF
:1003200051F8043B40F8043B51F8043B40F8043BCF
:1003300051F8043B40F8043B51F8043B40F8043BBF
:10034000403ABDD2303211D351F8043B40F8043B5F
:1003500051F8043B40F8043B51F8043B40F8043B9F
:1003600051F8043B40F8043B103AEDD20C3205D36F
:1003700051F8043B40F8043B043AF9D2043208D067
:10038000D2071CBF11F8013B00F8013B01D30B88D9
:1003900003806046704700BF082A13D38B078DD0B7
:1003A00010F003038AD0C3F10403D21ADB071CBF89
:1003B00011F8013B00F8013B80D331F8023B20F8F3
:1003C000023B7BE7043AD9D3013A11F8013B00F82C
:1003D000013BF9D20B7803704B7843708B788370B4
:1003E00060467047000000000000000000000000B0
:1003F000704700BFAFF30080AFF30080AFF3008021
:10040000704700BFAFF30080AFF30080AFF3008010
:10041000FEE700BFAFF30080AFF30080AFF30080D2
:10042000FEE700BFAFF30080AFF30080AFF30080C2
:1004300084B00190019B03F0070303930A4BDB6830
:100440000293029A4FF6FF0313400293039B1A0292
:10045000029B134343F0BF6343F400330293024B08
:10046000029ADA6004B0704700ED00E0AFF300805C
:1004700082B0034600918DF807309DF90730002BBC
:100480000CDA0C499DF8073003F00F03043B009A87
:10049000D2B21201D2B20B441A7609E006499DF994
:1004A0000730009AD2B21201D2B20B4483F8002373
:1004B00002B0704700ED00E000E100E0AFF3008023
:1004C00008B50E4B00229A600320FFF7B1FF0C4BDA
:1004D0000B4AD26842F08072DA600A4B094A12680D
:1004E00042F001021A606FF004000121FFF7C0FF23
:1004F0006FF001000221FFF7BBFF08BD00ED00E037
:10050000F0ED00E0001000E0AFF30080AFF30080FA
:1005100082B020230193019B83F3118802B07047BE
:1005200082B000230193019B83F3118802B07047CE
:1005300008B5FFF7EDFF08BDAFF30080AFF3008013
:1005400008B5FFF7EDFF08BDAFF30080AFF3008003
:1005500082B000230193019B83F3118862B602B03D
:10056000704700BFAFF30080AFF30080AFF30080AF
:10057000704700BFAFF30080AFF30080AFF300809F
:10058000014B5B6818467047001000E0AFF3008035
:100590004FF080435B6A1846704700BFAFF300809E
:1005A00008B501F045FB08BDAFF30080AFF3008054
:1005B00000B583B00190019801F042FB03B05DF8F3
:1005C00004FB00BFAFF30080AFF30080AFF3008007
:1005D00008B5FFF7DDFF0346184608BDAFF30080FE
:1005E00008B5FFF7B5FF08BDAFF30080AFF300809B
:1005F00008B5FFF79DFF08BDAFF30080AFF30080A3
:1006000008B5FFF79DFF08BDAFF30080AFF3008092
:1006100008B5FFF7DDFF0346184608BDAFF30080BD
:1006200000B585B02A4BDB690393FFF7F1FF029019
:100630002AE0274B9A6A039B9B681A44244B9A62D0
:10064000039B1B68234A5A60039B1A68204BDA619C
:10065000039BDB680093039B0022DA601C4BDA6982
:100660001C4B9A4201D1FFF79BFFFFF7C9FF039B89
:100670001A69009B10469847FFF7BAFF144BDB69D5
:100680000393FFF7C5FF0290039B9A68104B9B6A88
:100690000299CB1A9A42CCD90D4BDA690D4B9A428A
:1006A00000D112E00A4B9A6A039B9B681A44029B92
:1006B000D31A0193019B012B01D802230193029AC3
:1006C000019B13441846FFF773FF05B05DF804FB68
:1006D000000800201C080020AFF30080AFF300806A
:1006E00082B00190024B9B69019A9A6102B07047F7
:1006F00000080020AFF30080AFF30080AFF300806C
:1007000082B001900091019B009A9A6102B07047FB
:1007100000B583B00190FFF72BFFFCE7AFF300803B
:1007200000B585B0FFF7CCFE00F04AFA00F0B8F84B
:1007300000F0CEFD01F04CF901F09AF90F4840218C
:1007400000F056FC02460E4B9A610D4B9B6901224C
:100750001A77FFF745FF0B48FFF7C2FF002300930E
:100760000948D8210122094B00F0AAFC0390039804
:100770000749FFF7C5FF05B05DF804FB300800200E
:1007800000080020303F000078080020110700001A
:10079000203F0000AFF30080AFF30080AFF3008094
:1007A00008B5FFF73DFF08BDAFF30080AFF3008051
:1007B00084B0039002910192039A029BD21A01998C
:1007C000029BCB1A9A422CBF00230123DBB21846AE
:1007D00004B07047AFF30080AFF30080AFF3008048
:1007E00000B585B00190FFF7CBFE0390039A019B03
:1007F0001344029300BFFFF7C3FE03461846039954
:10080000029AFFF7D5FF0346002BF4D105B05DF83F
:1008100004FB00BFAFF30080AFF30080AFF30080B4
:100820004FF080435B6A1846704700BFAFF300800B
:1008300000B583B00190019801F0EAF903B05DF8CA
:1008400004FB00BFAFF30080AFF30080AFF3008084
:1008500008B501F0EDF908BDAFF30080AFF30080FB
:1008600000B583B00190019801F0EAF903B05DF89A
:1008700004FB00BFAFF30080AFF30080AFF3008054
:1008800008B5FFF7CDFF0346184608BDAFF300805B
:1008900008B5FFF7F5FF0346184608BDAFF3008023
:1008A000064B074ADA61054B054A1A62034B4FF0C3
:1008B000FF325A62014B00229A6270470008002002
:1008C0001C080020AFF30080AFF30080AFF300807E
:1008D00000B589B00390029101920093039B009AA6
:1008E0001A61039B019ADA60FFF7D2FF0590029B21
:1008F000012B01D802230293314BDA69314B9A4222
:1009000019D12F4B059A9A622D4B039ADA612C4B21
:10091000039A1A62039B2B4A1A60039B294A5A6066
:10092000039B029A9A60264B9A6A029B13441846CC
:10093000FFF77EFF40E0059A029B1A44204B9B6A1A
:10094000D31A06931E4BDB699A68069B9A4206D916
:100950001B4B9A6A069B13441846FFF781FF184BFE
:10096000DB69079307E0079B9B68069AD31A0693F7
:10097000079B1B680793079B9A68069B9A42F2D3D2
:10098000039B079A1A60039B1B685A68039B5A6073
:10099000039B5B68039A1A60079B039A5A60039B48
:1009A000069A9A60079B9A68069BD21A079B9A60E0
:1009B000034B4FF0FF325A6209B05DF804FB00BFF1
:1009C000000800201C080020AFF30080AFF3008077
:1009D00000B585B00190314BDA69019B9A421CD079
:1009E000019B5B68019A12681A60019B1B68019A5F
:1009F00052685A60019B0022DA60019B1A68284BFA
:100A00009A4209D0019B1B68019A12689168019A69
:100A100092680A449A603EE03DE0019B1A681F4BD1
:100A2000DA611E4BDB691E4A5A60019B0022DA60C4
:100A30001A4BDA691A4B9A4202D1FFF709FF2AE0F2
:100A4000164BDB69154AD2699168019A92680A448B
:100A50009A60FFF71DFF0246104B9B6AD31A029360
:100A60000E4BDB699A68029B9A4200D813E00B4B4D
:100A7000DB699A68029BD31A0393039B012B01D86D
:100A800002230393054B9A6A029B1A44039B134467
:100A90001846FFF7E5FE05B05DF804FB00080020EE
:100AA0001C080020AFF30080AFF30080AFF300809C
:100AB00082B020230193019B83F3118802B0704719
:100AC00082B000230193019B83F3118802B0704729
:100AD00008B5FFF7EDFF08BDAFF30080AFF300806E
:100AE00008B5FFF7EDFF08BDAFF30080AFF300805E
:100AF00082B00190019B019A1A60019B019A5A6091
:100B000002B07047AFF30080AFF30080AFF3008016
:100B100084B00190019B1B680393039B1A68019B9F
:100B20001A60019B1B68019A5A60039B184604B027
:100B3000704700BFAFF30080AFF30080AFF30080D9
:100B400082B00190019B5B68019A12681A60019B58
:100B50001B68019A52685A60019B184602B07047A0
:100B600008B5FFF7B5FF08BDAFF30080AFF3008015
:100B700008B5FFF7B5FF08BDAFF30080AFF3008005
:100B800082B00190019BDB68002B0CBF0023012386
:100B9000DBB2184602B07047AFF30080AFF30080BD
:100BA00082B00190019B9B685A1C019B9A6002B025
:100BB000704700BFAFF30080AFF30080AFF3008059
:100BC00008B50648FFF794FF044B00229A60034BD8
:100BD000024A1A61014B014A5A6108BD000800200F
:100BE00084B00190019B00221A770E4B0393039B64
:100BF0001B680393039B9A68019B9B689A42F6D2F9
:100C0000019B039A1A60039B5A68019B5A60019BDF
:100C10005B68019A1A60039B019A5A60019B18460F
:100C200004B0704700080020AFF30080AFF30080ED
:100C300000B585B003468DF807300D4B9B690393D3
:100C4000039B9DF807201A770948FFF761FF0246CA
:100C5000074B9A61064B9B6901221A77044B9B69EB
:100C600018460399FFF70CFB05B05DF804FB00BFC5
:100C700000080020AFF30080AFF30080AFF30080E6
:100C800000B585B00190019B0393FFF769FF039BBB
:100C90001B7F072B23D801A252F823F0BD0C0000C4
:100CA000DF0C0000DF0C0000C30C0000D70C0000BC
:100CB000CD0C0000DF0C0000D70C0000FFF758FF40
:100CC00017E0039B1B6A00221A6009E0039B1B6A62
:100CD0001846FFF765FF0398FFF732FF00E000BFFB
:100CE000039B4FF0FF321A620398FFF779FFFFF77B
:100CF0003FFF05B05DF804FBAFF30080AFF3008069
:100D000000B589B0034600918DF80730009BB3F120
:100D1000FF3F19D0124B9B6903AA10460099114A54
:100D2000FFF7D6FD9DF807301846FFF781FF03ABAC
:100D30001846FFF725FF0346002B04D003AB1846E7
:100D4000FFF746FE05E004E09DF807301846FFF780
:100D50006FFF034B9B691B6A184609B05DF804FBE3
:100D600000080020810C0000AFF30080AFF300808A
:100D700000B585B001900091019B009A1A62019B19
:100D80009A680E4B9B699B689A4203D80198FFF7BB
:100D900027FF0FE0094B9B691846FFF721FF0390DF
:100DA000064B019A9A61019B01221A7701980399D7
:100DB000FFF766FA05B05DF804FB00BF00080020ED
:100DC00082B0094B1B689B680193074B9B699B682A
:100DD0000093019A009B9A4294BF00230123DBB247
:100DE000184602B0704700BF00080020AFF3008033
:100DF00000B583B0184B9B6900931748FFF788FE36
:100E00000246154B9A61144B9B6901221A77009B8D
:100E100000221A77104B0193019B1B680193019BE1
:100E20009A68009B9B689A42F6D8009B019A1A60C8
:100E3000019B5A68009B5A60009B5B68009A1A608D
:100E4000019B009A5A60044B9B6918460099FFF772
:100E500017FA03B05DF804FB00080020AFF3008030
:100E600008B5FFF7C5FF08BDAFF30080AFF3008002
:100E700082B020230193019B83F3118802B0704755
:100E800082B000230193019B83F3118802B0704765
:100E900082B00190019B019A1A6002B0704700BFB6
:100EA00082B00190019B1A68019B9A420CBF0023FB
:100EB0000123DBB2184602B0704700BFAFF30080D9
:100EC00082B00190019B019A1A60019B019A5A60BD
:100ED00002B07047AFF30080AFF30080AFF3008043
:100EE00082B00190019B1A68019B9A420CBF0023BB
:100EF0000123DBB2184602B0704700BFAFF3008099
:100F000084B00190019B1B680393039B1A68019BAB
:100F10001A60039B184604B0704700BFAFF300800F
:100F200082B001900091019B009A1A60009B5A6860
:100F3000019B5A60019B5B68019A1A60009B019AB1
:100F40005A6002B0704700BFAFF30080AFF300807B
:100F500084B00190019B1B680393039B1A68019B5B
:100F60001A60019B1B68019A5A60039B184604B0E3
:100F7000704700BFAFF30080AFF30080AFF3008095
:100F800008B5FFF775FF08BDAFF30080AFF3008031
:100F900008B5FFF775FF08BDAFF30080AFF3008021
:100FA00000B583B0019008200199FFF7A9FE03B0B6
:100FB0005DF804FBAFF30080AFF30080AFF3008077
:100FC00000B585B0019000910198FFF7C1FF039033
:100FD000039B009A1A620398FFF702FE05B05DF8C2
:100FE00004FB00BFAFF30080AFF30080AFF30080DD
:100FF00000B583B001900091019B009A9A60019B1B
:1010000002221A77019B00225A77019B009ADA6329
:10101000019B00229A63019B00225A63019B0122DB
:101020009A77019B00229A61019B0E4A1A610D4B2F
:101030005A69019B5A61019B5B69019A1A61094BCC
:10104000019A5A61019B24331846FFF721FF019B47
:1010500028331846FFF734FF019B184603B05DF8AC
:1010600004FB00BF00080020AFF30080AFF3008056
:1010700000B587B00390029101920093039B059302
:10108000029B243B039A1A44059BDA60059BDB68AC
:10109000009A1A60059BDB68089A5A60059BDB681A
:1010A000054A1A6205980199FFF7A2FF0346184600
:1010B00007B05DF804FB00BF91020000AFF30080B1
:1010C00000B589B00590049103920293FFF758FF91
:1010D0000A9B009305980499039A029BFFF7C8FFA7
:1010E000079007980021FFF743FEFFF751FF079B8A
:1010F000184609B05DF804FBAFF30080AFF3008041
:1011000000B583B00190FFF73BFF0198FFF748FF60
:10111000FFF73EFF03B05DF804FB00BFAFF30080B4
:1011200000B583B00190FFF72BFF019800F008F89D
:1011300003B05DF804FB00BFAFF30080AFF30080A5
:1011400000B585B00190174B9B690393039B019AEF
:101150001A6208E0039B24331846FFF7D1FE0346CA
:101160001846FFF73DFD039B24331846FFF798FE12
:101170000346002BEED1039B5B7F03F00303002BA0
:1011800009D1039B5B69039A12691A61039B1B696E
:10119000039A52695A610F20FFF74AFD05B05DF8C6
:1011A00004FB00BF00080020AFF30080AFF3008015
:1011B00000B585B001900091019B1B68002B0BD0FE
:1011C000019B1B680393019B00221A60039B009AFA
:1011D0001A620398FFF704FD05B05DF804FB00BF39
:1011E00000B583B001900091009B002B02D14FF01D
:1011F000FF330AE0074B9B6918460199FFF790FE01
:1012000004200099FFF77CFD0346184603B05DF803
:1012100004FB00BF00080020AFF30080AFF30080A4
:1012200000B583B0019000910198FFF759FE034685
:10123000002B03D001980099FFF7C2FE03B05DF8C0
:1012400004FB00BFAFF30080AFF30080AFF300807A
:10125000014B5B6818467047001000E0AFF3008058
:1012600084B0039002910192039BDB685A1C039B9C
:10127000DA60039B9B68029AD21A019BD21A039BE5
:101280009A60039BD3E90401039B9B681A464FF0C5
:101290000003121843EB01030399C1E90423039BE4
:1012A0009A68039B5B689A4204D9039B9A68039BE4
:1012B0005A6009E0039B9A68039B1B689A4203D219
:1012C000039B9A68039B1A6004B07047AFF30080D9
:1012D00000B587B00A4B00225A676B46184600F0EB
:1012E00017F86B46184600F02BF86B46184600F0CE
:1012F00037F8029A024B5A6707B05DF804FB00BF4B
:1013000000080020AFF30080AFF30080AFF300804F
:1013100082B00190019B4FF0FF321A60019B0022C6
:101320005A60019B00229A60019B0022DA600199B9
:101330004FF000024FF00003C1E9042302B07047F0
:1013400000B583B00190FFF783FF0246019B9A60CE
:1013500003B05DF804FB00BFAFF30080AFF3008083
:1013600000B583B00190FFF773FF0246044B5B6F3B
:10137000019811461A46FFF773FF03B05DF804FBAE
:1013800000080020AFF30080AFF30080AFF30080CF
:1013900082B00190019B019A1A60019B019A5A60E8
:1013A00002B07047AFF30080AFF30080AFF300806E
:1013B00000B583B00190019B1846FFF7E9FF019B40
:1013C00000229A6003B05DF804FB00BFAFF3008019
:1013D00000B585B001900091019B1B6803931AE052
:1013E000039BDA68009B1A43039BDA60009B002B87
:1013F00006D0039BDA68039B1B691340002B07D0C0
:10140000039B5A68039B9B681046194600F010F82E
:10141000039B1B680393039A019B9A42E0D105B09A
:101420005DF804FBAFF30080AFF30080AFF3008002
:1014300000B583B001900091019B5A6B009B1A4349
:10144000019B5A63019B1B7F0A2B06D1019B5A6BA0
:10145000019B1B6A1340002B0CD1019B1B7F0B2BA4
:101460000ED1019B5A6B019B1B6A1A40019B1B6AA0
:101470009A4205D1019B00221A620198FFF7B0FB46
:1014800003B05DF804FB00BFAFF30080AFF3008052
:1014900082B020230193019B83F3118802B070472F
:1014A00082B000230193019B83F3118802B070473F
:1014B00082B00190019B019A1A60019B019A5A60C7
:1014C00002B07047AFF30080AFF30080AFF300804D
:1014D00008B5FFF7DDFF08BDAFF30080AFF3008074
:1014E00008B5FFF7DDFF08BDAFF30080AFF3008064
:1014F00000B583B001900198FFF7DAFF03B05DF803
:1015000004FB00BFAFF30080AFF30080AFF30080B7
:1015100082B00190019B9B68002B14BF0023012324
:10152000DBB2184602B07047AFF30080AFF3008023
:1015300082B00190019B5A69019B9B699A4205D137
:10154000019B9B68002B01D0012300E0002303F0E6
:101550000103DBB2184602B0704700BFAFF3008052
:1015600082B00190019B5A69019B9B699A4205D107
:10157000019B9B68002B01D0012300E0002303F0B6
:101580000103DBB2184602B0704700BFAFF3008022
:1015900082B00190019B9B68002B14BF00230123A4
:1015A000DBB2184602B07047AFF30080AFF30080A3
:1015B00000B585B00390029101920093039B1846F9
:1015C000FFF796FF039B00229A60039B029ADA6062
:1015D000039B029A9A61039B029A5A61029A019BA9
:1015E0001A44039B1A61039B009ADA61039B069AD3
:1015F0001A6205B05DF804FBAFF30080AFF3008022
:1016000000B583B001900B468DF803300198FFF7C9
:101610008FFF0346002B02D06FF003031CE0019BF9
:101620009B685A1C019B9A60019B5B69591C019A3B
:1016300051619DF803201A70019B5A69019B1B6937
:101640009A4203D3019BDA68019B5A61019B1846B9
:101650000021FFF7E5FD0023184603B05DF804FB09
:1016600000B585B001900091FFF732FF019BDB6967
:10167000002B04D0019BDB69019898470DE00CE03A
:10168000019B18460099FFF7ABFD0390039B002BCD
:1016900003DAFFF725FF039B20E00198FFF738FFEF
:1016A0000346002BECD1019B9B685A1E019B9A605C
:1016B000019B9B69591C019A91611B788DF80B3035
:1016C000019B9A69019B1B699A4203D3019BDA68CB
:1016D000019B9A61FFF704FF9DF80B30184605B097
:1016E0005DF804FBAFF30080AFF30080AFF3008040
:1016F00000B587B00390029101920093039BDB69D0
:10170000049300230593FFF7E3FE049B002B03D013
:10171000049B039898470CE00BE0039B1846009944
:10172000FFF75EFD0346002B03D0FFF7D9FE059BB4
:101730002EE00398FFF7ECFE0346002BEDD1039B50
:101740009B685A1E039B9A60029B5A1C0292039A42
:101750009269501C0399886112781A70039B9A69E8
:10176000039B1B699A4203D3039BDA68039B9A612C
:10177000FFF7B6FE059B01330593019B013B0193E7
:10178000019B002B01D1059B02E0FFF7A1FEBCE706
:10179000184607B05DF804FBAFF30080AFF300809C
:1017A00000B585B00390029101920093039B184607
:1017B000FFF79EFE039B019A9A60039B029ADA60F0
:1017C000039B029A9A61039B029A5A61029A019BB7
:1017D0001A44039B1A61039B009ADA61039B069AE1
:1017E0001A6205B05DF804FBAFF30080AFF3008030
:1017F00000B587B003900B4601928DF80B30FFF7D0
:1018000067FE0CE0039B18460199FFF7E9FC059081
:10181000059B002B03DAFFF763FE059B27E0039887
:10182000FFF7B6FE0346002BECD1039B9B685A1EC4
:10183000039B9A60039B5B69591C039A51619DF855
:101840000B201A70039B5A69039B1B699A4203D3AE
:10185000039BDA68039B5A61039BDB69002B03D06F
:10186000039BDB6903989847FFF73AFE002318466D
:1018700007B05DF804FB00BFAFF30080AFF300805A
:1018800000B585B001900198FFF76AFE0346002B72
:1018900002D06FF002031DE0019B9B685A1C019B64
:1018A0009A60019B9B69591C019A91611B788DF884
:1018B0000F30019B9A69019B1B699A4203D3019BDC
:1018C000DA68019B9A61019B18460021FFF7A8FC8A
:1018D0009DF80F30184605B05DF804FBAFF30080AB
:1018E00000B587B00390029101920093039BDB69DE
:1018F000049300230593FFF7EBFD0BE0039B1846D1
:101900000099FFF76DFC0346002B03D0FFF7E8FDBD
:10191000059B35E00398FFF73BFE0346002BEDD116
:10192000039B9B685A1E039B9A60039B5B69591C2F
:10193000039A5161029A511C029112781A70039B0A
:101940005A69039B1B699A4203D3039BDA68039B82
:101950005A61049B002B02D0049B03989847FFF721
:10196000BFFD059B01330593019B013B0193019B47
:10197000002B01D1059B03E0FFF7AAFD00BFC9E7DB
:10198000184607B05DF804FBAFF30080AFF30080AA
:1019900082B020230193019B83F3118802B070472A
:1019A00082B000230193019B83F3118802B070473A
:1019B00008B5FFF7EDFF08BDAFF30080AFF300807F
:1019C00008B5FFF7EDFF08BDAFF30080AFF300806F
:1019D000064B073323F007031A46054B1A60054BE5
:1019E00023F007031A46044B1A607047200E0020AC
:1019F000500900200000022054090020AFF30080AD
:101A000000B585B00190FFF7D3FF019800F008F80A
:101A10000390FFF7D5FF039B184605B05DF804FB64
:101A200084B00190019B073323F0070301930C4B13
:101A30001B681A460B4B1B68D31A1A46019B9A4225
:101A400001D2002309E0074B1B680393054B1A687A
:101A5000019B1A44034B1A60039B184604B070475D
:101A60005409002050090020AFF30080AFF300803C
:101A700008B5064B064A1A60044B00229A60034BD5
:101A80000022DA600348FFF793FC08BD58090020E4
:101A9000011A000068090020AFF30080AFF3008056
:101AA00082B020230193019B83F3118802B0704719
:101AB00082B000230193019B83F3118802B0704729
:101AC00008B5FFF7EDFF08BDAFF30080AFF300806E
:101AD00008B5FFF7EDFF08BDAFF30080AFF300805E
:101AE00010B582B0EFF309831C4623460193019B96
:101AF00020330193019B0093009B83F30988FFF738
:101B0000E7FF02B010BD00BFAFF30080AFF300806D
:101B100010B582B0FFF7D4FF134B5B6803F400638A
:101B2000002B1DD0EFF309831C4623460193019B34
:101B3000203B0193019B4FF08072DA61019B00937F
:101B4000009B83F30988FFF73BF90346002B03D082
:101B5000019B064A9A6105E0019B054A9A6101E0F2
:101B6000FFF7B6FF02B010BD00ED00E0A1020000DB
:101B7000A4020000AFF30080AFF30080AFF3008059
:101B8000704700BFAFF30080AFF30080AFF3008079
:101B900008B5FFF7F5FF00F04BFF064801F0C8F865
:101BA00000F076F900F03CFC02F01AF900F028F899
:101BB00008BD00BFF03F0000AFF30080AFF300802E
:101BC00082B001904FF08043019A5A634FF08043F6
:101BD00000221A614FF080430222DA6002B070479F
:101BE0004FF080430022DA60704700BFAFF30080FF
:101BF00082B001904FF08043019A5A6302B070475F
:101C000008B501F035F808BDAFF30080AFF30080F0
:101C100000B583B001900198FFF7D2FF03B05DF8E3
:101C200004FB00BFAFF30080AFF30080AFF3008090
:101C300008B5FFF7D5FF08BDAFF30080AFF3008014
:101C400000B583B001900198FFF7D2FF03B05DF8B3
:101C500004FB00BFAFF30080AFF30080AFF3008060
:101C600082B020230193019B83F3118802B0704757
:101C700082B000230193019B83F3118802B0704767
:101C800008B5FFF7EDFF08BDAFF30080AFF30080AC
:101C900008B5FFF7EDFF08BDAFF30080AFF300809C
:101CA00082B00190019B019A1A6002B0704700BF98
:101CB00082B00190019B9B68002B14BF002301237D
:101CC000DBB2184602B07047AFF30080AFF300807C
:101CD00008B5FFF7D5FF08BDAFF30080AFF3008074
:101CE00008B5FFF7D5FF08BDAFF30080AFF3008064
:101CF00000B583B001900198FFF7D2FF03B05DF803
:101D000004FB00BFAFF30080AFF30080AFF30080AF
:101D100000B583B00190009101980099FFF758FB3E
:101D200003B05DF804FB00BFAFF30080AFF30080A9
:101D300000B585B0039002910192039B30331846A1
:101D40000299019A4FF0FF33FFF7CAFD0346184688
:101D500005B05DF804FB00BFAFF30080AFF3008077
:101D600000B585B0039002910192039B0C33184695
:101D70000299019A4FF0FF33FFF7BAFC0346184669
:101D800005B05DF804FB00BFAFF30080AFF3008047
:101D900000B583B001900B468DF80330019B03F131
:101DA00030029DF80330104619464FF0FF32FFF71E
:101DB0001FFD0346184603B05DF804FBAFF3008037
:101DC00000B583B00190019B0C3318464FF0FF31F2
:101DD000FFF746FC0346184603B05DF804FB00BF5E
:101DE00000B585B003900B4601928DF80B30039B34
:101DF00003F130029DF80B3010461946019AFFF7A7
:101E0000F7FC0346184605B05DF804FBAFF300800D
:101E100000B583B001900091019B0C3318460099E6
:101E2000FFF71EFC0346184603B05DF804FB00BF35
:101E300000B585B00390029101920093039B30336B
:101E400018460299019A009BFFF74AFD034618467F
:101E500005B05DF804FB00BFAFF30080AFF3008076
:101E600000B585B00390029101920093039B0C335F
:101E700018460299019A009BFFF73AFC0346184660
:101E800005B05DF804FB00BFAFF30080AFF3008046
:101E900008B501F05DFF08BDAFF30080AFF300802F
:101EA00000B587B0059004910392059B134A1A6010
:101EB000059B04331846FFF71BFF059B01221A728E
:101EC000059B03F10C02059B5433059900911046C4
:101ED00019464022049BFFF76BFB059B03F1300280
:101EE000059B943305990091104619464022039BA7
:101EF000FFF756FC07B05DF804FB00BF503F000041
:101F000000B583B001900091FFF7E2FE01980099BF
:101F100001F036FF019B02221A72FFF7E1FE03B0C7
:101F20005DF804FBAFF30080AFF30080AFF30080F7
:101F300000B583B001900B468DF80330019B0C3344
:101F40001846FFF7B5FE0346002B05D0019B04336E
:101F500018460421FFF7DCFE019B03F10C029DF8FB
:101F6000033010461946FFF74BFB0346002B05DAFA
:101F7000019B043318468021FFF7CAFE03B05DF8C9
:101F800004FB00BFAFF30080AFF30080AFF300802D
:101F900082B020230193019B83F3118802B0704724
:101FA00082B000230193019B83F3118802B0704734
:101FB00008B5FFF7EDFF08BDAFF30080AFF3008079
:101FC00008B5FFF7EDFF08BDAFF30080AFF3008069
:101FD00008B5FFF7EDFF08BDAFF30080AFF3008059
:101FE00008B5FFF7EDFF08BDAFF30080AFF3008049
:101FF00008B5FFF7EDFF08BDAFF30080AFF3008039
:1020000008B5FFF7EDFF08BDAFF30080AFF3008028
:1020100084B00190019B5A1C01921B78ADF80E30E0
:10202000019B1B781B029AB2BDF80E3013439BB282
:10203000ADF80E30BDF80E30184604B0704700BF42
:1020400000B583B00190019B93F84620019B83F873
:102050004E20019801F0ECFA019B5B681B68002B95
:1020600005D0019B5B681B68019801219847019B83
:1020700003221A7003B05DF804FB00BFAFF30080C9
:1020800070B584B00190019B93F8443003F07F0257
:10209000019B93F845301B021343B3F5407F5AD0A0
:1020A000B3F5407F12D8022B00F0EE80022B05D84A
:1020B000002B28D0012B00F0DC80A6E1B3F5807F57
:1020C0002ED0B3F5817F00F036819EE1B3F5C06F6D
:1020D00074D0B3F5C06F08D840F20232934200F0DA
:1020E0005F81B3F5A06F51D08FE1B3F5106F00F0B1
:1020F000988040F60242934200F0BB80B3F5006F37
:1021000000F0828081E1019B03F14C02019B9A6304
:10211000019B0222DA63019B00221A64012375E10C
:10212000019B93F84630012B13D1019BB3F84C303F
:1021300023F002039AB2019BA3F84C20019B0022DA
:102140009A63019B0022DA63019B00221A64012337
:102150005CE100235AE1019B93F84630012B13D137
:10216000019BB3F84C3043F002039AB2019BA3F8F1
:102170004C20019B00229A63019B0022DA63019BA1
:1021800000221A64012341E100233FE1019B93F8FF
:102190004430002B07D1019B93F84530052B02D129
:1021A0000198FFF74DFF019B00229A63019B0022DB
:1021B000DA63019B00221A64012327E1019B5B681B
:1021C0005C68019B93F84760019B93F84650019B24
:1021D00048331846FFF71CFF0346019831462A464C
:1021E000A0470390039B002B01D100230EE1039B2A
:1021F0005A68019B9A63039B1A68019BDA63019BEF
:1022000000221A64012301E1019B03F14F02019BAB
:102210009A63019B0122DA63019B00221A64012365
:10222000F4E0019B93F84620019B83F84F20019B2B
:1022300093F84F30002B03D1019B03221A7002E068
:10224000019B04221A70019B5B681B68002B05D060
:10225000019B5B681B68019802219847019B002243
:102260009A63019B0022DA63019B00221A64012316
:10227000CCE0019B674A9A63019B0222DA63019BCF
:1022800000221A640123C1E0019B93F84830DBB2BD
:102290005BB2002B27DA019B93F8483003F00F0361
:1022A000DBB20198194601F0FBF90346012B02D07D
:1022B000022B0BD015E0019B574A9A63019B022227
:1022C000DA63019B00221A6401239FE0019B534AB9
:1022D0009A63019B0222DA63019B00221A640123A4
:1022E00094E0002392E0019B93F8483003F00F0341
:1022F000DBB20198194601F0B3F90346012B02D075
:10230000022B0BD015E0019B434A9A63019B0222EA
:10231000DA63019B00221A64012377E0019B3F4AA4
:102320009A63019B0222DA63019B00221A64012353
:102330006CE000236AE0019B93F84630002B01D04B
:10234000002363E0019B93F8483003F00F03002B58
:102350001BD0019B93F84830DBB25BB2002B0ADA4A
:10236000019B93F8483003F00F03DBB20198194644
:1023700001F016FB09E0019B93F8483003F00F03CE
:10238000DBB20198194601F0EBFA019B00229A6337
:10239000019B0022DA63019B00221A64012335E0CD
:1023A000019B93F84630002B01D000232EE0019BC7
:1023B00093F8483003F00F03002B1BD0019B93F8D8
:1023C0004830DBB25BB2002B0ADA019B93F848304D
:1023D00003F00F03DBB20198194601F0A1FA09E0FE
:1023E000019B93F8483003F00F03DBB201981946C4
:1023F00001F076FA019B00229A63019B0022DA63C6
:10240000019B00221A64012300E00023184604B057
:1024100070BD00BF703F0000903F0000803F000093
:1024200008B501F055F808BDAFF30080AFF30080A8
:1024300084B00190019B01221A70019B00225A6016
:10244000002303930FE0019A039B06339B00134480
:1024500000225A60019B039A0A32002143F822109D
:10246000039B01330393039B022BECD9019B0022B6
:102470001A81019B00225A8104B07047AFF300809B
:1024800000B587B00390019200930B468DF80B3096
:102490009DF80B30039A02339B0013445B689B69E1
:1024A0000593059B00221A70059B019ADA60059B33
:1024B000009A5A60059B00229A609DF80B300398A1
:1024C000194601F025F907B05DF804FBAFF3008071
:1024D00000B587B00390019200930B468DF80B3046
:1024E0009DF80B30039A02339B0013445B685B69D1
:1024F0000593059B00221A70059B019ADA60059BE3
:10250000009A5A60059B00229A609DF80B30039850
:10251000194601F045F907B05DF804FBAFF3008000
:1025200000B583B001900B468DF80330019B5A89AA
:102530009DF80330012101FA03F39BB213409BB2D3
:10254000002B01D0012312E0019B5A899DF8033032
:10255000012101FA03F39BB213439AB2019B5A8102
:102560009DF803300198194601F072F900231846CE
:1025700003B05DF804FB00BFAFF30080AFF3008051
:1025800000B583B001900B468DF80330019B1A898A
:102590009DF80330012101FA03F39BB213409BB273
:1025A000002B01D0012312E0019B1A899DF8033012
:1025B000012101FA03F39BB213439AB2019B1A81E2
:1025C0009DF803300198194601F062F9002318467E
:1025D00003B05DF804FB00BFAFF30080AFF30080F1
:1025E00000B585B00190019B02221A70019B002268
:1025F000A3F84C20019B002283F84E20019B00226F
:1026000083F84F20019B00221A81019B00225A81EE
:102610000023039309E0019A039B02339B001344B8
:1026200000225A60039B01330393039B032BF2D9CF
:10263000019B002283F83420019800F061FF05B06F
:102640005DF804FBAFF30080AFF30080AFF30080D0
:1026500000B585B001900B468DF80330019B002238
:1026600083F83420019B44339DF8032001981146E0
:102670001A4601F035F8019B5B689B68002B0AD075
:10268000019B5B689B6801989847034683F00103B0
:10269000DBB2002B27D0019B93F8443003F060039A
:1026A000002B08D10198FFF7EBFC034683F00103F0
:1026B000DBB2002B17D00198002101F031F901980D
:1026C000002101F00DF9019B5B681B68002B05D010
:1026D000019B5B681B68019805219847019B0622B6
:1026E00083F834206CE0019B4A331846FFF790FCD6
:1026F00003460393019BDA6B039B9A4202D9019B29
:10270000039ADA63019B93F84430DBB25BB2002B8F
:102710002BDA019BDB6B002B14D0019B012283F889
:102720003420019B9A6B019BDB6B01980021FFF722
:10273000CFFEFFF75DFC01980021FFF721FFFFF7B7
:102740005FFC3DE0019B032283F8342001980021C7
:1027500000220023FFF794FEFFF74AFC01980021B6
:10276000FFF7DEFEFFF74CFC2AE0019BDB6B002B42
:1027700014D0019B042283F83420019B9A6B019BA7
:10278000DB6B01980021FFF77BFEFFF731FC01981E
:102790000021FFF7C5FEFFF733FC11E0019B052286
:1027A00083F834200198002100220023FFF790FED7
:1027B000FFF71EFC01980021FFF7E2FEFFF720FC67
:1027C00005B05DF804FB00BFAFF30080AFF30080FD
:1027D00000B585B001900B468DF80330019B93F84E
:1027E0003430062B73D801A252F823F09F28000042
:1027F000092800005F2800009F2800009F28000093
:10280000852800009F280000019B4A331846FFF7E7
:10281000FFFB03460393019BDA6B039B9A421ED294
:10282000019BDB6B019AD268128AB3FBF2F102FBC7
:1028300001F29B1A002B12D10198002100220023E3
:10284000FFF746FEFFF7D4FB01980021FFF798FE43
:10285000FFF7D6FB019B022283F8342037E0019B6F
:10286000032283F834200198002100220023FFF77F
:1028700007FEFFF7BDFB01980021FFF751FEFFF7B0
:10288000BFFB24E0019B1B6C002B03D0019B1B6C46
:1028900001989847019B002283F8342017E00198A3
:1028A000002101F03DF80198002101F019F8019B89
:1028B0005B681B68002B05D0019B5B681B68019857
:1028C00005219847019B062283F8342000BF05B0FC
:1028D0005DF804FBAFF30080AFF30080AFF300803E
:1028E00000B583B001900B468DF80330019B93F83F
:1028F0003430062B4FD801A252F823F0672900008C
:1029000067290000672900003F29000019290000FD
:102910006729000067290000019B052283F8342005
:102920000198002100220023FFF7D2FDFFF760FB92
:1029300001980021FFF724FEFFF762FB2BE0019BCB
:10294000DB689B699B68002B00D024E0019B1B6C1B
:10295000002B03D0019B1B6C01989847019B002220
:1029600083F8342017E00198002100F0D9FF019886
:10297000002100F0B5FF019B5B681B68002B05D0B0
:10298000019B5B681B68019805219847019B062203
:1029900083F8342000BF03B05DF804FBAFF3008080
:1029A00082B0019000911149009BDBB21B01DAB2A9
:1029B000019B0B4403F540731A700C4B019A5209AA
:1029C000019901F01F01012000FA01F1603243F882
:1029D0002210064B019A5209019901F01F010120B2
:1029E00000FA01F143F8221002B0704700E100E064
:1029F0000D4B0D4A126842F480721A600B4B1B6F2C
:102A000003F44073B3F5007F06D0084B4FF48032D7
:102A10001A67064B00221A67034B034A526822F4D6
:102A200000725A60704700BF0070004000380240DA
:102A300008B5164B1B69154B4FF0FF321A61134B4B
:102A400000221A61114B5B69104B4FF0FF325A6143
:102A50000E4B00225A610D4B0C4A126A62F08052F2
:102A60001A620A4B00221A62084B5B6A074B4FF04E
:102A7000FF325A62054B00225A62044B034A126C21
:102A800042F080521A64FFF7B3FF08BD00380240DD
:102A9000404B4FF080521A643F4B4FF440421A6053
:102AA0003C4B3C4A126842F001021A6000BF394BAD
:102AB0001B6803F00203002BF9D0364B354A9268AD
:102AC00022F003029A60334B324A92689A6000BF48
:102AD000304B9B6803F00C03002BF9D12D4B2D4A92
:102AE000126802F0F9021A602A4B00229A60294B00
:102AF000284A126842F480321A6000BF254B1B68D6
:102B000003F40033002BF9D0224B224A526F42F0DB
:102B100001025A6700BF1F4B5B6F03F00203002BDB
:102B2000F9D01C4B1D4A5A601A4B1A4A126842F0DF
:102B300080721A6000BF184B5B6803F48043002B5F
:102B4000F9D000BF134B1B6803F00073002BF9D0C2
:102B5000104B134A9A60134B40F205721A600D4BEA
:102B60000C4A926842F002029A6000BF094B9B68CF
:102B700003F00C03082BF9D1064B064A526C42F4C1
:102B800080425A64034B034A526E42F480425A66B2
:102B9000704700BF003802400070004008544007F2
:102BA00000940838003C0240AFF30080AFF300808F
:102BB00082B020230193019B83F3118802B07047F8
:102BC00082B000230193019B83F3118802B0704708
:102BD00008B5FFF7EDFF08BDAFF30080AFF300804D
:102BE00008B5FFF7EDFF08BDAFF30080AFF300803D
:102BF00008B5FFF7EDFF08BDAFF30080AFF300802D
:102C000008B5FFF7EDFF08BDAFF30080AFF300801C
:102C100008B5FFF7EDFF08BDAFF30080AFF300800C
:102C200008B5FFF7EDFF08BDAFF30080AFF30080FC
:102C300008B5FDF7B5FD08BDAFF30080AFF3008028
:102C400008B54FF080431B6903F00203002B09D045
:102C50004FF0804300221A61FFF7DAFFFFF7E8FF29
:102C6000FFF7DEFFFEF754FF08BD00BFAFF30080A3
:102C700008B5194B184A126C42F001021A64174B3E
:102C8000164A926842F001029A604FF0804342F285
:102C9000CF029A624FF080434FF0FF32DA624FF07A
:102CA000804300229A614FF0804300225A634FF024
:102CB00080430022DA604FF0804300225A604FF0D8
:102CC000804301225A614FF0804301221A601C2088
:102CD0000821FFF765FE08BD00380240002004E02F
:102CE00082B001900091009B5A68019B5A60009B42
:102CF0009A68019B9A60009BDA68019BDA60009BEE
:102D00001A69019B5A61009B5A69019B1A62009BD8
:102D10009A69019B5A62009B1A68019B1A6002B073
:102D2000704700BFAFF30080AFF30080AFF30080C7
:102D300000B583B00190244A234B1B6B6FEA5323E9
:102D40006FEA43231363204A1F4B1B6D6FEA532323
:102D50006FEA43231365019B1C481946FFF7C0FF28
:102D6000019B1C331A481946FFF7BAFF019B383301
:102D700018481946FFF7B4FF019B5433164819460B
:102D8000FFF7AEFF019B703314481946FFF7A8FF09
:102D9000019B8C3312481946FFF7A2FF019BA83311
:102DA00010481946FFF79CFF019BC4330E48194693
:102DB000FFF796FF019BE0330C481946FFF790FFA1
:102DC00003B05DF804FB00BF003802400000024081
:102DD0000004024000080240000C024000100240C3
:102DE0000014024000180240001C02400020024073
:102DF0008EB0039002910192019B03F003030D93A7
:102E0000019B03F004039B080C93019B03F0180340
:102E1000DB080B93019B03F060035B090A93019BA2
:102E200003F4F063DB09089300230993029B03F08A
:102E30000103002B54D0099B03F007039B00089A61
:102E400002FA03F30793099B03F007039B000F2289
:102E500002FA03F30693099B072B09D8039B1A6A0E
:102E6000069BDB431A40079B1A43039B1A6208E048
:102E7000039B5A6A069BDB431A40079B1A43039B3A
:102E80005A62099B012202FA03F30593039B5A68D5
:102E9000059BDB431A400C9B1A43039B5A60099B1A
:102EA0005B00032202FA03F30493039B9A68049BDA
:102EB000DB431A400B9B1A43039B9A60039BDA681F
:102EC000049BDB431A400A9B1A43039BDA60039B73
:102ED0001A68049BDB431A400D9B1A43039B1A603C
:102EE000029B5B080293029B002B00D10FE00C9B1E
:102EF0005B000C930B9B9B000B930A9B9B000A931C
:102F00000D9B9B000D93099B013309938EE70EB037
:102F1000704700BFAFF30080AFF30080AFF30080D5
:102F200082B020230193019B83F3118802B0704784
:102F300082B000230193019B83F3118802B0704794
:102F400008B5FFF7EDFF08BDAFF30080AFF30080D9
:102F500008B5FFF7EDFF08BDAFF30080AFF30080C9
:102F600008B5FFF7EDFF08BDAFF30080AFF30080B9
:102F700008B5FFF7EDFF08BDAFF30080AFF30080A9
:102F800008B5FFF7EDFF08BDAFF30080AFF3008099
:102F900008B5FFF7EDFF08BDAFF30080AFF3008089
:102FA00000B583B001900198FDF71AFC03B05DF8FD
:102FB00004FB00BFAFF30080AFF30080AFF30080ED
:102FC00000B583B00190009101980099FEF7F0F8E8
:102FD00003B05DF804FB00BFAFF30080AFF30080E7
:102FE00000B585B00190019B1B6D0393039B1022DC
:102FF0001A6100BF039B1B6903F01003002BF9D17A
:103000000C20FFF7CDFF05B05DF804FBAFF30080A7
:1030100000B585B001900091019B1B6D0393009B4F
:103020009B0143F02002039B1A6100BF039B1B69B5
:1030300003F02003002BF9D10C20FFF7B1FF05B0FE
:103040005DF804FBAFF30080AFF30080AFF30080C6
:1030500082B00190019B5B6D1A68019B9A6502B07A
:10306000704700BFAFF30080AFF30080AFF3008084
:1030700084B001900091019B9B6D0393019B9A6D1D
:10308000009B1A44019B9A65039B184604B0704745
:1030900000B587B001900B468DF80330019B1B6D86
:1030A00005939DF80330059A5B01134403F608135A
:1030B0001B6804939DF80330059A5B01134403F6E3
:1030C0000813049A1A60049B03F00103002B4DD0EF
:1030D000059BD3F8103803F00103002B46D09DF870
:1030E0000330019A02339B0013445B685B690393CE
:1030F000039B5A68039B1B699A421AD2039B1A6965
:10310000039B5B68D21A039B5A60039B00229A6060
:103110009DF803300198194600F042FBFFF730FF9D
:103120009DF803300198194600F0B2FBFFF730FF1D
:103130001CE0019B1B899AB29DF80330012101FA22
:1031400003F39BB2DB439BB213409BB29AB2019B49
:103150001A819DF80330019A02339B0013445B6887
:103160009B689DF80320019811469847049B03F043
:103170008003002B2BD0059BD3F834289DF8033017
:10318000012101FA03F31340002B20D0FFF7F8FED2
:10319000019BDA6D9DF80330012101FA03F31A4314
:1031A000019BDA65059BD3F834289DF80330012193
:1031B00001FA03F3DB431A40059BC3F83428019B53
:1031C000603318460021FFF7FBFEFFF7E1FE07B072
:1031D0005DF804FBAFF30080AFF30080AFF3008035
:1031E00000B587B001900B468DF80330019B1B6D35
:1031F00005939DF80330059A5B01134403F60833E9
:103200001B6804939DF80330059A5B01134403F691
:103210000833049A1A60049B03F00803002B13D0B0
:10322000059BD3F8143803F00803002B0CD09DF84D
:103230000330019A02339B0013445B685B689DF87E
:103240000320019811469847049B03F00103002BCB
:103250004DD0059BD3F8143803F00103002B46D062
:103260009DF80330019A02339B0013445B689B690D
:103270000393039B5A68039B1B699A421AD2039BD0
:103280001A69039B5B68D21A039B5A60039B002256
:103290009A609DF803300198194600F039FAFFF75B
:1032A0005FFE9DF803300198194600F0D1FAFFF750
:1032B0005FFE1CE0019B5B899AB29DF803300121FF
:1032C00001FA03F39BB2DB439BB213409BB29AB269
:1032D000019B5A819DF80330019A02339B001344ED
:1032E0005B68DB689DF8032001981146984707B09A
:1032F0005DF804FBAFF30080AFF30080AFF3008014
:1033000000B587B00190019B1B6D0593059B5B6920
:103310000493059B9B69049A13400493059B049AAC
:103320005A61049B002B16DA059BD3F8003E03F08C
:103330000303002B07D0059BD3F8003E23F00302C4
:10334000059BC3F8002E059BD3F8043843F0010217
:10335000059BC3F80428049B03F48053002B0DD075
:103360000198FFF73DF9019B5B681B68002B05D0B6
:10337000019B5B681B68019800219847049B03F43C
:103380000053002B17D0059BD3F8083803F0060331
:10339000002B08D1059BDB6823F4705343F41052D3
:1033A000059BDA6007E0059BDB6823F4705343F468
:1033B000A052059BDA60049B03F00803002B09D0A0
:1033C000019B5B68DB68002B04D0019B5B68DB68BA
:1033D00001989847049B03F01003002B0FD0FFF7D0
:1033E000CFFD059B9B6923F01002059B9A61019B11
:1033F000603318460021FFF7E3FDFFF7C9FD059B89
:10340000D3F818380393049B03F48023002B23D0B4
:10341000039B03F00103002B03D001980021FFF769
:1034200037FE039B03F00203002B03D00198012118
:10343000FFF72EFE039B03F00403002B03D001983B
:103440000221FFF725FE039B03F00803002B03D0A6
:1034500001980321FFF71CFE049B03F40023002BBB
:1034600023D0039B03F48033002B03D00198002169
:10347000FFF7B6FE039B03F40033002B03D0019843
:103480000121FFF7ADFE039B03F48023002B03D043
:1034900001980221FFF7A4FE039B03F40023002BF5
:1034A00003D001980321FFF79BFE07B05DF804FBF2
:1034B00008B50348FFF724FFFEF72AFB08BD00BF4D
:1034C00078090020AFF30080AFF30080AFF30080F5
:1034D00008B50848FEF7ACFF064B00221A66054BFC
:1034E0004FF0A0421A65034B034A5A65014B002274
:1034F0005A6608BD78090020D03F0000AFF3008075
:1035000010B584B00190019B1B6D029301980021BE
:10351000FFF77EFD0023039322E0029A039B4833CA
:103520005B0113444FF000621A60029A039B583308
:103530005B0113444FF000621A60029A039B5B0127
:10354000134403F60813FF221A60029A039B5B01DF
:10355000134403F60833FF221A60039B01330393DD
:10356000019B5B6D9A68039B9A42D6D2029B4FF0F7
:10357000FF32C3F81828029B4FF00112C3F81C2831
:103580000198FFF765FD019B5B6D1A68029B5A620B
:103590000198FFF725FD029BD3F8003823F4FE6263
:1035A000029BC3F80028029B9B6943F4402343F02D
:1035B0001003029A9361029B0922C3F81028029B10
:1035C0000922C3F81428019B164ADA60029B0022E4
:1035D000C3F8102B402343F0805343F40043029A76
:1035E000C2F8003B029B0022C3F81029402343F09D
:1035F000805343F40043029AC2F8003940239B08E9
:103600009BB21B041C4640239B089BB201981946A1
:10361000FFF72EFD034644EA0302029B9A6204B0C0
:1036200010BD00BFA03F0000AFF30080AFF30080EB
:1036300084B00190019B1B6D0393039BD3F800386A
:1036400023F4FE62019B93F84E301B011A43039B47
:10365000C3F8002804B07047AFF30080AFF30080D8
:1036600084B001900B468DF80330019B1A6D9DF8D4
:10367000033058335B0113441B680393039B03F42B
:103680000043002B01D1002307E0039B03F4001348
:10369000002B01D0012300E00223184604B070473C
:1036A00084B001900B468DF80330019B1A6D9DF894
:1036B000033048335B0113441B680393039B03F4FB
:1036C0000043002B01D1002307E0039B03F4001308
:1036D000002B01D0012300E00223184604B07047FC
:1036E00000B585B003900B4601928DF80B309DF824
:1036F0000B30039A02339B0013445B681B6A0198EA
:1037000019460822FCF7D4FD05B05DF804FB00BFA4
:1037100084B001900B468DF803309DF80330019A78
:1037200002339B0013445B689B690393039B5A68B5
:10373000039B1A619DF80330002B06D1039B5B6845
:10374000402B02D9039B40225A60039B5A689DF884
:103750000330019902339B000B445B685B8A13447E
:103760005A1E9DF80330019902339B000B445B689D
:103770005B8AB2FBF3F30293019B196D9DF8033052
:10378000029AD004039A5268024342F0C0425B019D
:103790000B4403F531631A6004B07047AFF3008047
:1037A00084B001900B468DF803309DF80330019AE8
:1037B00002339B0013445B685B690393039B5A6865
:1037C000039B1A61039B5B68002B0BD1019B1A6D55
:1037D0009DF803305B01134403F511634FF400229D
:1037E0001A602FE09DF80330002B06D1039B5B6825
:1037F000402B02D9039B40225A60039B5A689DF8D4
:103800000330019902339B000B445B681B8A13440D
:103810005A1E9DF80330019902339B000B445B68EC
:103820001B8AB2FBF3F30293019B196D9DF80330E1
:10383000029AD004039A526802435B010B4403F5D9
:1038400011631A6004B07047AFF30080AFF30080DB
:1038500082B001900B468DF80330019B196D9DF8E5
:103860000330019A106D9DF8032058325201024432
:10387000126842F0806258335B010B441A6002B058
:10388000704700BFAFF30080AFF30080AFF300805C
:1038900082B001900B468DF80330019B196D9DF8A5
:1038A0000330019A106D9DF8032048325201024402
:1038B000126842F0044248335B010B441A60019BDA
:1038C0001B6D019A126DD2F834189DF80320012067
:1038D00000FA02F20A43C3F8342802B0704700BF6E
:1038E00082B001900B468DF80330019B196D9DF855
:1038F0000330019A106D9DF80320583252010244A2
:10390000126842F4001258335B010B441A6002B093
:10391000704700BFAFF30080AFF30080AFF30080CB
:1039200082B001900B468DF80330019B196D9DF814
:103930000330019A106D9DF8032048325201024471
:10394000126842F4001248335B010B441A6002B063
:10395000704700BFAFF30080AFF30080AFF300808B
:1039600082B001900B468DF80330019B196D9DF8D4
:103970000330019A106D9DF8032058325201024421
:10398000126822F4001258335B010B441A6002B033
:10399000704700BFAFF30080AFF30080AFF300804B
:1039A00082B001900B468DF80330019B196D9DF894
:1039B0000330019A106D9DF80320483252010244F1
:1039C000126822F4001248335B010B441A6002B003
:1039D000704700BFAFF30080AFF30080AFF300800B
:1039E00082B020230193019B83F3118802B07047BA
:1039F00082B000230193019B83F3118802B07047CA
:103A000008B5FFF7EDFF08BDAFF30080AFF300800E
:103A100008B5FFF7EDFF08BDAFF30080AFF30080FE
:103A200008B5FFF7EDFF08BDAFF30080AFF30080EE
:103A300008B5FFF7EDFF08BDAFF30080AFF30080DE
:103A400082B00190019B5A69019B9B699A4205D102
:103A5000019B9B68002B01D0012300E0002303F0B1
:103A60000103DBB2184602B0704700BFAFF300801D
:103A700008B5FFF7D5FF08BDAFF30080AFF30080B6
:103A800008B5FFF7D5FF08BDAFF30080AFF30080A6
:103A900000B583B00190009101980099FDF798FC62
:103AA00003B05DF804FB00BFAFF30080AFF300800C
:103AB00084B001900091019BD3F8D4300393019B13
:103AC000D3F8D4201D4B9A4205D0019BD3F8D420C3
:103AD0001B4B9A4207D1009B1B681A4AB2FBF3F2B8
:103AE000039B9A6006E0009B1B68174AB2FBF3F247
:103AF000039B9A60009BDB8843F040039BB21A460D
:103B0000039B1A61009B1B8943F001039BB21A4679
:103B1000039B5A61009B9B8843F4045343F02C039E
:103B20009BB21A46039BDA60039B00221A60039B38
:103B30001B68039B5B6804B0704700BF0010014026
:103B40000014014000BD010580DE8002AFF300805B
:103B500000B585B001900B46ADF802300023039309
:103B6000BDF8023003F00803002B03D0039B43F0A1
:103B700080030393BDF8023003F00103002B03D050
:103B8000039B43F020030393BDF8023003F00203CC
:103B9000002B03D0039B43F040030393BDF8023096
:103BA00003F00403002B03D0039B43F480730393BF
:103BB000019B043318460399FFF76AFF05B05DF8CF
:103BC00004FB00BFAFF30080AFF30080AFF30080D1
:103BD00000B587B00190019BD3F8D4300493049BC7
:103BE000DB68ADF80E30049B1B68ADF81630BDF8ED
:103BF000163003F48073002B0ED0FFF739FF019BC2
:103C0000043318464FF40071FFF742FF049B6FF432
:103C100080721A60FFF734FFFFF72AFF1FE0BDF83C
:103C2000163003F00F03002B05D0BDF816300198B5
:103C30001946FFF78DFF049B5B688DF80D30BDF8CA
:103C4000163003F02003002B05D09DF80D300198AD
:103C50001946FEF76DF9049B1B68ADF81630BDF8E8
:103C6000163003F02F03002BD9D1FFF709FFBDF861
:103C70000E3003F08003002B24D0BDF8163003F083
:103C80008003002B1ED0FFF7F3FE019B3033184654
:103C9000FDF7F6FD0290029B002B0EDA019B043328
:103CA00018460821FFF7F4FEBDF80E3023F0C003DC
:103CB00043F04002049BDA6002E0029A049B5A60DF
:103CC000FFF7DEFEBDF8163003F04003002B1BD0DB
:103CD000FFF7CEFE019B30331846FFF7B1FE0346D7
:103CE000002B05D0019B043318461021FFF7D0FEAE
:103CF000BDF80E3023F04002049BDA60049B6FF0A5
:103D000040021A60FFF7BCFE07B05DF804FB00BF7D
:103D100082B00190034B034AD26842F08002DA601D
:103D200002B0704700480040AFF30080AFF300805E
:103D300008B50348FFF74CFFFDF7EAFE08BD00BFDA
:103D4000440B0020AFF30080AFF30080AFF300809E
:103D500008B505480021054AFEF7A2F8024B044ABF
:103D6000C3F8D42008BD00BF440B0020113D000063
:103D700000480040AFF30080AFF30080AFF3008055
:103D800000B583B001900091009B002B01D10D4B39
:103D90000093019B1B7A012B0DD1019A0A4B9A4289
:103DA00009D10A4B094A126C42F480221A64272076
:103DB0000C21FEF7F5FD01980099FFF779FE03B09D
:103DC0005DF804FBE03F0000440B00200038024097
:103DD00008B5FEF75DFE08BDAFF30080AFF30080CD
:103DE000704700BFAFF30080AFF30080AFF30080F7
:103DF00000B583B0FDF7CCFEFCF792FC00F050F864
:103E00002048FF212022FEF7F3FF1F484FF4806176
:103E100040F28232FEF7ECFF1B484FF4006140F2A3
:103E20008232FEF7E5FF19480021FEF769F8154BCD
:103E30001B698DF807309DF80730FF2B1DD09DF8CA
:103E400007308DF8003000238DF8013000238DF805
:103E5000023000238DF8033000238DF80430002356
:103E60008DF8053000238DF806306B46084819465A
:103E700007224FF0FF33FDF733FD3220FDF740F905
:103E8000D5E700BF0000024000040240440B0020C0
:103E9000740B0020AFF30080AFF30080AFF300801D
:103EA00084B00023029331E0029B9BB21B02ADF869
:103EB0000E3008238DF807301BE0BDF80E301BB222
:103EC000002B0CDABDF80E305B009BB283F4FF438D
:103ED00083F07A03DB439BB2ADF80E3004E0BDF80B
:103EE0000E305B00ADF80E309DF80730013B8DF8C9
:103EF00007309DF80730002BDFD1074B029ABDF841
:103F00000E1023F81210029B01330293029BFF2B29
:103F1000CADD04B0704700BF1C0C0020AFF3008066
:103F200069646C65000000000000000000000000F3
:103F30006D61696E00160218040444080C10141810
:103F4000001C1D1E0000000000000000000000001A
:103F5000311D0000611D0000911D0000C11D000009
:103F6000E11D0000111E0000311E0000611E000056
:103F70000000000000000000000000000000000041
:103F80000000000000000000000000000000000031
:103F90000100000000000000000000000000000020
:103FA0000000000051260000D1270000E128000099
:103FB00040004000280B0020280B002001000000DA
:103FC0003C0B00200000000000000000000000008A
:103FD000800000004001000003000000000000001D
:103FE00080250000000000400000000000000000EC
:103FF00000AAA02A00000000FFABFFFF5400014010
:10400000FFFF00000000565500AA0A0080200800AB
:1040100040020000FFFFFFFF15455155FFFF000064
:1040200000000004400000000180200200000000A9
:10403000FFFFFFFF54154554FFFF00000000006024
:10404000000606000001005500000000FFFFFFFF12
:1040500055505500FF0F0000000000000000000058
:104060004000000000000000FFFFFFFF0000000014
:10407000FFFF000000000000000000000000000042
:1040800000000000FFFFFFFF00000000FFFF000036
:104090000000000000000000000000000000000020
:1040A000FFFFFFFF00000000FFFF00000000000016
:1040B000000000000000000000000000FFFFFFFF04
:1040C00000000000FFFF00000000000000000000F2
:1040D0000000000000000000FFFFFFFF00000000E4
:0C40E000FFFF00000000000000000000D6
:04000003000001C137
:00000001FF
